:100000000C9435000C945D000C945D000C945D0024
:100010000C945D000C945D000C945D000C945D00EC
:100020000C945D000C945D000C945D000C949E019A
:100030000C945D000C945D000C945D000C945D00CC
:100040000C945D000C945D000C94DE030C94B903D9
:100050000C945D000C945D000C945D000C945D00AC
:100060000C945D000C945D00D30711241FBECFEFEC
:10007000D8E0DEBFCDBF11E0A0E0B1E0E4E7F0E101
:1000800002C005900D92AC30B107D9F724E0ACE086
:10009000B1E001C01D92AF33B207E1F710E0C5E354
:1000A000D0E004C02197FE010E941908C433D10793
:1000B000C9F70E94F6030C941F080C9400002091CD
:1000C00022013091230180912E0290912F02203243
:1000D000310511F4807F08952034310511F4807EBC
:1000E00008952038310511F4807C089521153140A0
:1000F00009F480780895CF92DF92EF92FF920F93E8
:100100001F93CF93DF93082F162FD42FC22FC090A9
:100110000C01D0900D01E0900E01F0900F010E94B3
:10012000D201C61AD70AE80AF90A8EE1C816D10424
:10013000E104F10458F428EE33E0C29EC001C39EEE
:10014000900DD29E900D11240E94DD01602F87E357
:1001500092E00E942C03612F87E392E00E942C031F
:100160006D2F87E392E00E942C036C2F87E392E0CF
:10017000DF91CF911F910F91FF90EF90DF90CF9083
:100180000C942C032FEF482F692F80EA0C947B00EE
:100190008AE392E00E94B0038823D1F38AE392E0DD
:1001A0000C9481030F931F93CF93DF93CEE2D1E0A2
:1001B0008C01025D1E4FC017D10721F00E94C800BC
:1001C0008993F9CFDF91CF911F910F91089580917D
:1001D0002C01853969F480912D018F3011F0843123
:1001E00079F484E090E090930201809301010895F6
:1001F000843939F480912D01863099F38B3089F35D
:100200000895833949F480912D0196EF980F92302B
:1002100040F38F30A9F7E5CF823949F480912D0161
:100220009BEF980F9230E8F28A3051F7DACF81399C
:1002300039F780912D01883019F7D3CFCF93C82F8C
:100240000E94C800803281F464E18AE392E00E9457
:100250008D036C2F8AE392E00E948D0360E18AE3B4
:1002600092E0CF910C948D0381E08093320265E19E
:10027000F6CF0E94C800803251F464E18AE392E034
:100280000E948D0360E18AE392E00C948D0381E08B
:100290008093320265E1F7CF0E94C10140E052EC49
:1002A00061E070E08AE392E00E94610382E00E94D4
:1002B000040282E00E944502892B81F162E087E31B
:1002C00092E00E942703539A82E18093B00081E07C
:1002D0008093B1001092B3001092B20085E00E94AA
:1002E0002B0262E085E00E948C0286E00E942B02D5
:1002F00062E086E00E948C0287E00E942B0262E0AE
:1003000087E00E948C0288E00E942B0262E088E075
:100310000E948C020E94D8020C94AF0260E187E335
:1003200092E00E942703539A82E18093B00081E01B
:100330008093B10087E08093B300CECF1F921FB6A9
:100340001F9211248F939F93AF93BF938091330299
:1003500090913402A0913502B09136020196A11D10
:10036000B11D8093330290933402A0933502B09371
:100370003602BF91AF919F918F911F901FBE1F902A
:100380001895E1E8F0E080818A60808387E08093BF
:10039000890080ED80938800EFE6F0E08081826044
:1003A00080830895F89460913302709134028091B3
:1003B000350290913602789408958230910538F094
:1003C000880F991F880F991F05970197F1F70895D6
:1003D000282F30E0883058F49AB121E030E001C095
:1003E000220F8A95EAF7209529232AB9089544B166
:1003F0002850310981E090E001C0880F2A95EAF782
:100400008095842384B90895282F30E0883090F4B3
:100410004AB121E030E0B90102C0660F771F8A952A
:10042000E2F7CB01962F909594239AB99BB1892B33
:100430008BB9089544B12850310981E090E001C0A2
:10044000880F2A95EAF7982F9095942394B995B13F
:10045000892B85B90895482F50E0883050F49AB11F
:1004600021E030E001C0220F8A95EAF7922B9AB979
:10047000089584B14850510921E030E001C0220FB5
:100480004A95EAF7822B84B90895482F50E08830C6
:1004900070F449B121E030E0B90102C0660F771F66
:1004A0008A95E2F7CB0150E084239523089523B188
:1004B0004850510981E090E002C0880F991F4A9589
:1004C000E2F730E0822393230895282F30E088302C
:1004D00090F421E030E0A90102C0440F551F8A9535
:1004E000E2F7CA019BB1662319F0892B8BB90895F5
:1004F00080958923FBCF2850310981E090E001C02D
:10050000880F2A95EAF795B1662319F0892B85B9EA
:10051000089580958923FBCFCF93DF93D82FC62FE3
:1005200061E08D2F0E9465022FEF86E791E0215058
:1005300080409040E1F700C0000060E08D2F0E94F5
:1005400065022FEF86E791E0215080409040E1F76F
:1005500000C00000C15020F7DF91CF910895EAE775
:10056000F0E0808187608083ACE7B0E08C918064AC
:100570008C938081806880838081806480830895EB
:1005800090917C00907F90937C0090917C00892BCF
:1005900080937C0080917A00806480937A008091BF
:1005A0007A0086FDFCCF80917800909179000895C3
:1005B00082E88093800089E18093810080E89EE357
:1005C0009093870080938600109289001092880093
:1005D000219A0895853608F084E620EA829FC001BA
:1005E0001124909389008093880008951CBC1DBC41
:1005F000239825980895FC01611106C0628161313C
:1006000028F01CBC828108956283F9CF693030F0F4
:1006100080E1828383E58CBD1DBCF4CF653038F06A
:1006200088E0828383E58CBD81E08DBDEBCF6330B4
:1006300020F084E0828382E5F6CF623019F4628391
:1006400081E5E9CF81E0828391E59CBDEECF0E94F8
:10065000FB02239A259A0895EF92FF920F931F931E
:10066000CF93DF937C01D62FCCB5CC2369F06EBD40
:100670000DB407FEFDCFCEB58C2FDF91CF911F912A
:100680000F91FF90EF90089508E010E0CC0F1C99B7
:10069000C160D7FF14C02B9AF7018281869590E044
:1006A0000E94DD012D9AF7018281869590E00E94DB
:1006B000DD012D98DD0F0150110941F7DDCF2B9899
:1006C000EBCF9A01AB01519A60E874E88EE190E0BB
:1006D0000E94D807215031093093C5002093C400EF
:1006E000E0ECF0E0808182608083E1ECF0E08081EA
:1006F00088698083E2ECF0E0808186608083789472
:10070000089580913B048F5F80933B04E0913B040C
:10071000F0E0E55CFD4F8081089580913E048F5F9D
:1007200080933E04E0913E04F0E0E55CFC4F608382
:10073000E1ECF0E080818062808308950F931F9345
:10074000CF93DF938C01EB016991161624F4C80155
:100750000E948D03F9CFDF91CF911F910F910895E2
:1007600020913B0490913C0481E0291301C080E07A
:1007700008958F938FB78F939F93EF93FF938091FB
:100780003D048F5F80933D04E0913D04F0E0E55C23
:10079000FC4F80818093C60090913D0480913E047F
:1007A000981305C08091C1008F7D8093C100FF9197
:1007B000EF919F918F918FBF8F9118958F938FB7E6
:1007C0008F93EF93FF9380913C048F5F80933C0461
:1007D000E0913C04F0E08091C600E55CFD4F808331
:1007E000FF91EF918F918FBF8F9118950E944C01CF
:1007F00095E0992E2BEF822E3AE0E32EF12C80919A
:10080000320261E0811101C060E088E00E9465026F
:100810000E94D20100911101109112012091130147
:10082000309114015B016C01A01AB10AC20AD30A0B
:10083000960185010233110521053105B8F0609359
:100840001101709312018093130190931401809110
:1008500015010E94EA029091150194362CF18092C4
:10086000000180910001890F809315018AE392E0D5
:100870000E94B003782E882311F20E94C8008035B0
:1008800009F4BCC138F5803409F4CDC090F480334C
:1008900009F4AEC0813309F4B0C0803291F481E034
:1008A0008093320265E1BAC01916DCF29092000121
:1008B000D8CF823409F40DC108F4D5C0853409F4C9
:1008C00092C181E0809332020E94C80062E18032CE
:1008D00049F7A4C0813609F424C228F5853509F406
:1008E000DBC1863509F4E7C1813559F71092320230
:1008F00087E392E00E94F6026091100181E0682790
:100900008AE00E946502229A60E085E00E9465020A
:10091000109231021092300210922B0110922C0191
:1009200010922D0167C0843709F491C2853709F40C
:1009300004C3843631F661E087E00E9465020E94BC
:10094000C800C82F0E94C800D0E0DC2FCC27C80FF9
:10095000D11D0E94C800863409F027C2CE010E9432
:10096000D2000E94C800803209F016C264E18AE316
:1009700092E00E948D030E945F008C015EE2C52E12
:1009800051E0D52EB12CA12CAC16BD0608F0FCC14F
:100990000E945F008017910749F020E0402F612FEF
:1009A0008CE40E947B000E945F008C0140912E022B
:1009B00060912F02F601208180E40E947B00F2E02A
:1009C000AF0EB11C40912E0260912F02F6012181E1
:1009D00088E40E947B0080912E0290912F02019664
:1009E00090932F0280932E02F2E0CF0ED11CCCCF39
:1009F000109232020E94390102CF0E94C800803258
:100A000009F04DCF64E18AE392E00E948D0363E038
:100A100071E08AE392E00E949E0360E18AE392E043
:100A20000E948D03ECCE0E94C800873851F08938AF
:100A300079F08638A9F40E94C80087708093B100CD
:100A4000D9CF0E94C8008093B3001092B200D2CFD9
:100A50000E94C800682F87E392E00E94FB02CACF81
:100A60000E94C800C7CF0E94C8008058893108F58D
:100A7000E82FF0E0EF5DF74F0C94190882E00E9438
:100A80001E01BDCE81E0FBCF82E3F9CF80E00E9462
:100A9000C0029C01BC017695679590E080E06152B0
:100AA0007C478F4F9F4F50E040E00E94FA07822F13
:100AB000E6CF80E0E4CF8091B1008770E0CF8091F5
:100AC000B300DDCF80913902DACF83E5D8CF83E060
:100AD000D6CF84E190E00E94D20020912E01209395
:100AE000160180912F01809317018091300180932E
:100AF0001801809131018093190180913201809316
:100B00001A018091330180931B01809134018093FD
:100B10001C018091350180931D018091360190E088
:100B2000982F882730913701830F911D90931F01D3
:100B300080931E018091380190E0982F8827309192
:100B40003901830F911D90932101809320018091A1
:100B50003A0190E0982F882730913B01830F911D37
:100B6000909323018093220180913C0190E0982F83
:100B7000882730913D01830F911D9093250180932B
:100B8000240180913E0190E0B0E0A0E0BA2FA92FAF
:100B9000982F882730913F01830F911DA11DB11D12
:100BA000BA2FA92F982F882730914001830F911DCC
:100BB000A11DB11DBA2FA92F982F8827309141016F
:100BC000830F911DA11DB11D8093260190932701D4
:100BD000A0932801B093290181E0203E08F480E031
:100BE0008093100107CF0E94C800815090E00E94BE
:100BF000D20080912E0180932A01FCCE8091310297
:100C00008111F8CEF0920201E092010110923002BF
:100C100010922B0110922C0110922D016091100165
:100C20008AE00E946502229A60E087E392E00E94D7
:100C3000270360E08DE00E9465022FEF89EF90E0CE
:100C4000215080409040E1F700C000006091100109
:100C5000C1E06C278AE00E94650284E690E00E9471
:100C6000DD01609110018AE00E946502EFEFF0E77C
:100C700022E0E150F0402040E1F700C0000020E019
:100C800040E063E58CEA0E947B0061E085E00E9421
:100C90006502C0933102AECE0E94C800C82F0E94E8
:100CA000C80090E0982F88278C0F911D90932F02F9
:100CB00080932E029FCE84E090E00E94D20020918B
:100CC00031014091300160912F0180912E010E94ED
:100CD0007B00C82F0E941E0180912E01803341F4B9
:100CE000E0913001E33020F4F0E0E55DFE4FC08399
:100CF00080912B01882309F482CD90912C019923B6
:100D000009F47DCD90912D01992309F478CDF092CD
:100D10000201E09201018E3109F071CD0E94E700DD
:100D20006ECD61E087E00E9465020E94C800182F26
:100D3000C0912E02D0912F0280913002882311F0B1
:100D4000CC0FDD1FCE010E94C2001817B1F0212F79
:100D50004C2F6D2F80EC0E947B00C09101010E94FE
:100D6000D2016C0F711D811D911D60930C01709358
:100D70000D0180930E0190930F010E94390160E0F4
:100D800087E00E9465023BCD20E0402F612F8CE47C
:100D90000E947B0060E104C081E08093320265E143
:100DA0008AE392E00E948D03EACF61E18534C1F7C6
:100DB00000912E0210912F0280913002882311F0B1
:100DC000000F111FCE010E94D2003EE2C32E31E07F
:100DD000D32EB12CA12C612CC501800F911FCA15F7
:100DE000DB0591F0F60151906F010E94C200581688
:100DF00039F0252D4A2D6B2D81EC0E947B00672C4C
:100E0000FFEFAF1ABF0AE8CF6620B1F020E0402F15
:100E1000612F82EC0E947B00C09101010E94D201EF
:100E20006C0F711D811D911D60930C0170930D015C
:100E300080930E0190930F010E94C800803209F048
:100E4000ABCF64E18AE392E00E948D03A3CF61E01F
:100E500086E00E9465020E94C800C82F0E94C80058
:100E6000082F0E94C800D82F0E94C800803259F075
:100E700081E08093320265E18AE392E00E948D0373
:100E800060E086E07ECF8C2F90E0982F8827080FB7
:100E9000192F111D64E18AE392E00E948D03D6347C
:100EA00059F5D0E0C0E0C017D10708F044C0409128
:100EB0002E0260912F022FEF80E20E947B00682FAC
:100EC0008AE392E00E948D0340912E0260912F02EE
:100ED0002FEF88E20E947B00682F8AE392E00E9455
:100EE0008D0380912E0290912F02019690932F02F4
:100EF00080932E022296D7CF61E1D53409F0BCCF82
:100F0000C0902E02D0902F0280913002882311F0E1
:100F1000CC0CDD1CD0E0C0E00C171D0761F0CE0149
:100F20008C0D9D1D0E94C200682F8AE392E00E94F2
:100F30008D032196F1CF60E19FCF61E086E00E94B2
:100F400065020E94C800803209F092CF81E0809350
:100F5000300264E18AE392E00E948D030BE211E02B
:100F6000C0E020E04C2F60E080E30E947B00F801AD
:100F700081938F01682F8AE392E00E948D03CF5FF7
:100F8000C33079F760E18AE392E00E948D03F0922A
:100F90000201E092010180912B018E3109F070CFA6
:100FA0000E94E7006DCFE7E3F2E01082118208951E
:100FB000A1E21A2EAA1BBB1BFD010DC0AA1FBB1F5D
:100FC000EE1FFF1FA217B307E407F50720F0A21BCF
:100FD000B30BE40BF50B661F771F881F991F1A943C
:100FE00069F760957095809590959B01AC01BD0166
:100FF000CF010895052E97FB1EF400940E9411085E
:1010000057FD07D00E94D80707FC03D04EF40C947C
:10101000110850954095309521953F4F4F4F5F4FA8
:10102000089590958095709561957F4F8F4F9F4F54
:101030000895EE0FFF1F0590F491E02D0994F894A8
:10104000FFCF3E05420544055905460559055B0598
:101050005F05590562055905590559055905590591
:101060005905590559055905650559055905590584
:0410700059056705B2
:0C107400050A006E616E6F53544B0000C3
:00000001FF
