:100000000C9462000C948A000C948A000C948A0070
:100010000C948A000C948A000C948A000C948A0038
:100020000C948A000C948A000C948A000C948A0028
:100030000C948A000C948A000C948A000C948A0018
:100040000C945F040C948A000C942D040C94070407
:100050000C948A000C948A000C948A000C948A00F8
:100060000C948A000C948A000000000024002700F1
:100070002A0000000000250028002B0000000000DE
:1000800023002600290004040404040404040202DA
:100090000202020203030303030301020408102007
:1000A0004080010204081020010204081020000012
:1000B0000008000201000003040700000000000027
:1000C0000000A90411241FBECFEFD8E0DEBFCDBFD2
:1000D00011E0A0E0B1E0E2E7F4E102C005900D928A
:1000E000AE31B107D9F722E0AEE1B1E001C01D9217
:1000F000AD3EB207E1F710E0C2E6D0E004C02197C0
:10010000FE010E940F0AC136D107C9F70E94DA0426
:100110000C94370A0C9400008093EC02813120F09B
:100120001CBC8091EC020895893038F080E1809306
:10013000EC0283E58CBD1DBCF4CF853040F088E037
:100140008093EC0283E58CBD81E08DBDEACF8330E6
:1001500028F084E08093EC0282E5F5CF823011F440
:1001600081E5E8CF81E08093EC0291E59CBDEDCF85
:1001700081110E948C00239A259A0895982F8CB59E
:10018000811128C028E030E0880F1C99816097FF1A
:100190001FC02B9AE091EC02AE2FA695A23038F04A
:1001A00044E0A49FD001112415971197F1F72D9ADF
:1001B000E695E23038F044E0E49FF00111243597F1
:1001C0003197F1F72D98990F21503109E9F60895EB
:1001D0002B98E0CF9EBD0DB407FEFDCF8EB50895E0
:1001E000AF92BF92CF92DF92EF92FF920F931F9345
:1001F000CF93DF936C017B018B01040F151FEB0183
:100200005E01AE18BF08C017D10759F06991D60139
:10021000ED91FC910190F081E02DC6010995892BAB
:1002200079F7C501DF91CF911F910F91FF90EF906A
:10023000DF90CF90BF90AF900895FC01538D448D17
:10024000252F30E0842F90E0821B930B541710F081
:10025000CF96089501970895FC01918D828D98178E
:1002600061F0A28DAE0FBF2FB11D5D968C91928D66
:100270009F5F9F73928F90E008958FEF9FEF089597
:10028000FC01918D828D981731F0828DE80FF11D60
:10029000858D90E008958FEF9FEF0895FC01918D7B
:1002A000228D892F90E0805C9F4F821B91098F7374
:1002B000992708958DE492E00E944E0121E0892B58
:1002C00009F420E0822F089580E090E0892B29F046
:1002D0000E945A0181110C9400000895FC01A48D24
:1002E000A80FB92FB11DA35ABF4F2C91848D90E058
:1002F00001968F739927848FA689B7892C93A0893B
:10030000B1898C91837080648C93938D848D9813C4
:1003100006C00288F389E02D80818F7D8083089557
:10032000EF92FF920F931F93CF93DF93EC0181E045
:10033000888F9B8D8C8D98131AC0E889F9898081EC
:1003400085FF15C09FB7F894EE89FF896083E8891F
:10035000F98980818370806480839FBF81E090E011
:10036000DF91CF911F910F91FF90EF900895F62E9E
:100370000B8D10E00F5F1F4F0F731127E02E8C8D38
:100380008E110CC00FB607FCFACFE889F98980817D
:1003900085FFF5CFCE010E946E01F1CFEB8DEC0F02
:1003A000FD2FF11DE35AFF4FF0829FB7F8940B8F9A
:1003B000EA89FB8980818062CFCF682F8DE492E04B
:1003C0000C949001CF93DF93EC01888D8823B9F0D2
:1003D000AA89BB89E889F9898C9185FD03C0808150
:1003E00086FD0DC00FB607FCF7CF8C9185FFF2CFCD
:1003F000808185FFEDCFCE010E946E01E9CFDF91B4
:10040000CF910895833081F028F4813099F08230C3
:10041000A9F008958730A9F08830C9F08430B1F48C
:10042000809180008F7D03C0809180008F778093C2
:100430008000089584B58F7784BD089584B58F7D3D
:10044000FBCF8091B0008F778093B00008958091AA
:10045000B0008F7DF9CF1F93CF93DF93282F30E02B
:10046000F901E255FF4F8491F901E656FF4FD4910F
:10047000F901EA57FF4FC491CC23A9F0162F81113F
:100480000E940202EC2FF0E0EE0FFF1FEE58FF4F2C
:10049000A591B4918FB7F894EC91111108C0D09543
:1004A000DE23DC938FBFDF91CF911F910895DE2B68
:1004B000F8CFCF93DF9390E0FC01E656FF4F2491F5
:1004C0008A579F4FFC0184918823C9F090E0880FE0
:1004D000991FFC01E859FF4FA591B491FC01EE581A
:1004E000FF4FC591D49161110DC09FB7F8948C91C5
:1004F000209582238C938881282328839FBFDF91B6
:10050000CF910895623051F49FB7F8943C91822FB7
:10051000809583238C93E8812E2BEFCF8FB7F894AF
:10052000EC912E2B2C938FBFEACF3FB7F89480919C
:10053000230190912401A0912501B091260126B5B7
:10054000A89B05C02F3F19F00196A11DB11D3FBF0B
:10055000BA2FA92F982F8827BC01CD01620F711DDA
:10056000811D911D42E0660F771F881F991F4A95D4
:10057000D1F708958F929F92AF92BF92CF92DF9260
:10058000EF92FF926B017C010E9495024B015C018E
:10059000C114D104E104F104B9F00E949502681974
:1005A00079098A099B09683E73408105910580F3AA
:1005B00021E0C21AD108E108F10888EE880E83E034
:1005C000981EA11CB11CE4CFFF90EF90DF90CF905C
:1005D000BF90AF909F908F900895CF93DF93D82FC7
:1005E000C3E061E08D2F0E942B026EE170E080E09D
:1005F00090E00E94BA0260E08D2F0E942B026EE113
:1006000070E080E090E00E94BA02C15051F7DF91A3
:10061000CF91089580914602853969F4809147020F
:100620008F3011F0843179F484E090E090930301ED
:10063000809302010895843939F48091470286300D
:1006400099F38B3089F30895833949F480914702F7
:1006500096EF980F923040F38F30A9F7E5CF8239AB
:1006600049F4809147029BEF980F9230E8F28A306C
:1006700051F7DACF813939F780914702883019F77D
:10068000D3CF8DE492E00E944E01892BD1F38DE40B
:1006900092E00E942C010895CF93C82F0E9441033D
:1006A000803271F484E190E00E94DD016C2F8DE4D2
:1006B00092E00E94900180E190E0CF910C94DD01E6
:1006C00081E080934C0285E190E0F7CF0E944103E6
:1006D000803241F484E190E00E94DD0180E190E00D
:1006E0000C94DD0181E080934C0285E190E0F8CF2D
:1006F0000F931F93CF93DF93C5E4D1E08C010B5B85
:100700001E4FC017D10721F00E9441038993F9CFF2
:10071000DF91CF911F910F910895CF92DF92EF92C9
:10072000FF920F931F93CF93DF93082F162FD42F91
:10073000C22F60911E0170911F0180912001909144
:1007400021012FB7F894C0902701D0902801E090A4
:100750002901F0902A012FBF6C197D098E099F098C
:100760006F3F71058105910509F010F40E94BA02EE
:10077000802F0E94BE00812F0E94BE008D2F0E94FC
:10078000BE008C2FDF91CF911F910F91FF90EF90C2
:10079000DF90CF900C94BE00282F3FB7F894809143
:1007A000270190912801A0912901B0912A013FBF12
:1007B000820F911DA11DB11D80931E0190931F01F9
:1007C000A0932001B093210108952FEF482F692FA6
:1007D00080EA0C948D0320913B0130913C01809183
:1007E000490290914A022032310511F4807F089528
:1007F0002034310511F4807E08952038310511F43C
:10080000807C08952115314009F4807808951F9265
:100810000F920FB60F9211242F933F934F935F9334
:100820006F937F938F939F93AF93BF93EF93FF93B8
:100830008DE492E00E946E01FF91EF91BF91AF9124
:100840009F918F917F916F915F914F913F912F91E8
:100850000F900FBE0F901F9018951F920F920FB61A
:100860000F9211242F938F939F93EF93FF93E09117
:100870005D02F0915E028081E0916302F09164027A
:1008800082FD1BC09081809166028F5F8F732091E3
:100890006702821741F0E0916602F0E0E35BFD4FF2
:1008A000958F80936602FF91EF919F918F912F9189
:1008B0000F900FBE0F901F9018958081F4CF1F925C
:1008C0000F920FB60F9211242F933F938F939F9304
:1008D000AF93BF938091270190912801A0912901A6
:1008E000B0912A013091220123E0230F2D3758F5D2
:1008F0000196A11DB11D20932201809327019093A1
:100900002801A0932901B0932A018091230190919D
:100910002401A0912501B09126010196A11DB11DD0
:100920008093230190932401A0932501B093260185
:10093000BF91AF919F918F913F912F910F900FBEDB
:100940000F901F90189526E8230F0296A11DB11D48
:10095000D2CFEDE4F2E01382128288EE93E0A0E0C1
:10096000B0E084839583A683B78388E091E0918388
:10097000808385EC90E09587848784EC90E097876E
:10098000868780EC90E0918B808B81EC90E0938B5C
:10099000828B82EC90E0958B848B86EC90E0978B39
:1009A000868B118E128E138E148EEAEEF2E0108278
:1009B00011820895789484B5826084BD84B5816085
:1009C00084BD85B5826085BD85B5816085BD80911A
:1009D0006E00816080936E00109281008091810092
:1009E000826080938100809181008160809381008A
:1009F000809180008160809380008091B10084604C
:100A00008093B1008091B00081608093B0008091AC
:100A10007A00846080937A0080917A00826080936B
:100A20007A0080917A00816080937A0080917A00C8
:100A3000806880937A001092C100E0915D02F0918D
:100A40005E0282E08083E0915902F0915A021082A6
:100A5000E0915B02F0915C0280E18083109265027C
:100A6000E0916102F091620286E08083E0915F0292
:100A7000F0916002808180618083E0915F02F0915B
:100A80006002808188608083E0915F02F091600263
:100A9000808180688083E0915F02F09160028081B4
:100AA0008F7D808362E082E00E945902E0EBF0E0FB
:100AB0008491ECE9F0E0D491E8E8F0E0C491CC2333
:100AC00079F081110E940202EC2FF0E0EE0FFF1F7F
:100AD000E458FF4FA591B491EC91ED2381E009F426
:100AE00080E10E94B80061E085E00E94590285E043
:100AF0000E94ED0261E086E00E94590286E00E94B9
:100B0000ED0261E087E00E94590287E00E94ED0259
:100B100061E088E00E94590288E00E94ED0261E0F5
:100B200089E00E94590261E083E00E94590282E15B
:100B30008093B00081E08093B10087E08093B300A0
:100B40001092B2008BE8682E7724739490E0492EBF
:100B500090E0592E2AE0C22ED12C80914C0261E007
:100B6000811101C060E088E00E942B022FB7F89449
:100B70008091270190912801A0912901B0912A012B
:100B80002FBF40912B0150912C0160912D0170914C
:100B90002E018C019D01041B150B260B370BB9018F
:100BA000A801483251056105710518F180932B01A8
:100BB00090932C01A0932D01B0932E01C0910101BF
:100BC00080910001C13A20F081958093000102C01C
:100BD000C031D0F380910001C80FC093010161E0E2
:100BE00089E00E945902C11126C060E089E00E949C
:100BF0002B028DE492E00E944E01892B09F462C120
:100C00000E944103803509F431C208F06EC080347F
:100C100009F411C108F056C0803309F4F1C08133E2
:100C200009F4F3C0803209F055C081E080934C0292
:100C300085E190E0FDC0CF3F11F461E0D7CFE7EB55
:100C4000F0E08491833019F138F48130B1F08230D2
:100C5000C9F0C7FDF2CFC9CF873021F1883051F1FB
:100C60008430B9F780918000806280938000D0E06A
:100C7000D0938B00C0938A00BCCF84B5806884BDBC
:100C8000C7BDB7CF84B5806284BDC8BDB2CF8091E7
:100C90008000806880938000D0E0D0938900C0936A
:100CA0008800A7CF8091B00080688093B000C09387
:100CB000B3009FCF8091B00080628093B000C0935A
:100CC000B40097CF823409F43CC108F4D3C0853412
:100CD00009F4C1C181E080934C020E94410380323B
:100CE00009F0A6CF82E190E0A3C0813609F449C2A1
:100CF00040F5853509F401C2863509F40DC2813508
:100D000049F710924C021CBC1DBC23982598609199
:100D1000440181E068278AE00E942B0260E08AE0BB
:100D20000E94590260E085E00E942B0210924B0263
:100D30001092480210924502109246021092470209
:100D400061C0843709F4A5C2853709F415C3843618
:100D500009F661E087E00E942B020E944103C82F40
:100D60000E944103D0E0DC2FCC27C80FD11D0E9488
:100D70004103863409F040C2CE010E9478030E94EC
:100D80004103803209F030C284E190E00E94DD012D
:100D90000E94EB037C0145E4A42E41E0B42EC50182
:100DA000855491408C179D0708F012C20E94EB03F6
:100DB0008E159F0549F020E04E2D6F2D8CE40E948A
:100DC0008D030E94EB037C010091490210914A02BD
:100DD000F5012081402F612F80E40E948D03F501F1
:100DE0002181402F612F88E40E948D030F5F1F4FE8
:100DF00010934A0200934902F2E0AF0EB11CCFCF2C
:100E000010924C020E9466035DC00E944103803232
:100E100009F00BCF84E190E00E94DD0147E050E053
:100E200066E171E08DE492E00E94F00080E190E0E4
:100E30000E94DD0147C00E944103873851F0893884
:100E400079F08638A1F40E94410387708093B10045
:100E5000D9CF0E9441038093B3001092B200D2CF49
:100E60000E944103882371F20E948C00CBCF0E9424
:100E70004103C8CF0E9441038058893108F051C016
:100E8000E82FF0E0EA5BF84F0C940F0A5F076E075B
:100E900070079107720791079307970791079A07C1
:100EA0009107910791079107910791079107910782
:100EB00091079D0791079107910791079F0782E08E
:100EC0000E944C034114510409F447CE0E945A0178
:100ED000882309F442CE0E9400003FCE81E0F0CF8B
:100EE0008DE1EECF80E480937C0080917A00806475
:100EF00080937A0080917A0086FDFCCF2091780063
:100F000030917900B9017695679590E080E0615263
:100F10007C478F4F9F4F50E040E00E94F009822FA6
:100F2000CFCF80E0CDCF8091B1008770C9CF8091C5
:100F3000B300C6CF8091EC02C3CF83E5C1CF83E07D
:100F4000BFCF84E190E00E94780320914501209377
:100F50002F01809146018093300180914701809359
:100F60003101809148018093320180914901809341
:100F7000330180914A018093340180914B01809329
:100F8000350180914C018093360180914D0190E0B4
:100F9000982F882730914E01830F911D909338012F
:100FA0008093370180914F0190E0982F88273091EE
:100FB0005001830F911D90933A01809339018091E4
:100FC000510190E0982F882730915201830F911D95
:100FD00090933C0180933B018091530190E0982FC6
:100FE000882730915401830F911D90933E01809387
:100FF0003D018091550190E0B0E0A0E0BA2FA92F0B
:10100000982F882730915601830F911DA11DB11D86
:10101000BA2FA92F982F882730915701830F911D40
:10102000A11DB11DBA2FA92F982F882730915801E3
:10103000830F911DA11DB11D80933F01909340012D
:10104000A0934101B093420181E0203E08F480E08A
:1010500080934401D7CE0E944103815090E00E94CA
:1010600078038091450180934301CCCE80914B025F
:101070008111C8CED0920301C092020110924802A1
:10108000109245021092460210924702C09144010C
:101090006C2F8AE00E942B0261E08AE00E945902D4
:1010A00080E00E94B80060E08DE00E942B0264E1C5
:1010B00070E080E090E00E94BA02D1E06C2F6D27D2
:1010C0008AE00E942B02C3010197F1F76C2F8AE09E
:1010D0000E942B0262E370E080E090E00E94BA027E
:1010E00020E040E063E58CEA0E948D0361E085E04A
:1010F0000E942B02D0934B0285CE0E944103C82F41
:101100000E94410390E0982F88278C0F911D9093A7
:101110004A028093490276CE84E090E00E947803F0
:10112000C091470110914501209148014C2F6091D9
:101130004601812F0E948D03D82F0E944C0310334B
:1011400039F4C33028F4EC2FF0E0EB5BFD4FD08393
:1011500080914502882309F4B5CE909146029923E7
:1011600009F4B0CE90914702992309F4ABCED09206
:101170000301C09202018E3109F0A4CE0E940A033D
:10118000A1CE61E087E00E942B020E944103182F4C
:10119000C0914902D0914A0280914802882311F0FF
:1011A000CC0FDD1FCE010E94E503181751F0212F4F
:1011B0004C2F6D2F80EC0E948D03809102010E94C4
:1011C000CC030E94660360E087E00E942B027ACE87
:1011D00020E04E2D6F2D8CE40E948D0360E18DE4A4
:1011E00092E00E949001EFCF81E080934C0285E174
:1011F00090E00E94DD01E7CF853409F047C00091FF
:10120000490210914A0280914802882311F0000F90
:10121000111FCE010E94780325E4A22E21E0B22EF8
:10122000F12CE12C312C9801255431404901C401A5
:101230008A0D9B1DCE15DF0599F0F50121905F0108
:101240000E94E503281641F0222D4E2D6F2D81ECD2
:101250000E948D0333243394FFEFEF1AFF0AE7CF88
:10126000332051F020E0402F612F82EC0E948D034B
:10127000809102010E94CC030E944103803209F058
:10128000B3CF84E190E00E94DD01A8CF81E190E03E
:10129000B0CF61E086E00E942B020E944103082F3C
:1012A0000E944103F82E0E944103D82F0E9441035F
:1012B000803251F081E080934C0285E190E00E9401
:1012C000DD0160E086E081CF10E0102F00270F0DD8
:1012D000111D84E190E00E94DD01D63449F5F12C26
:1012E000E12CE016F10608F041C0C0914902D0910E
:1012F0004A022FEF4C2F6D2F80E20E948D03682F42
:101300008DE492E00E9490012FEF4C2F6D2F88E228
:101310000E948D03682F8DE492E00E949001219637
:10132000D0934A02C093490222E0E20EF11CD9CFC9
:1013300061E1D534E1F4E0904902F0904A028091F5
:101340004802882311F0EE0CFF1CD0E0C0E00C171F
:101350001D0761F0CE018E0D9F1D0E94E503682FD1
:101360008DE492E00E9490012196F1CF60E18DE43E
:1013700092E00E949001A5CF61E086E00E942B02DE
:101380000E944103803209F095CF81E080934802AA
:1013900084E190E00E94DD0105E412E0C0E020E07D
:1013A0004C2F60E080E30E948D03F80181938F0150
:1013B000682F8DE492E00E949001CF5FC33079F7EF
:1013C00080E190E00E94DD01D0920301C092020111
:1013D000809145028E3109F074CF0E940A0371CFCB
:1013E000052E97FB1EF400940E94070A57FD07D0B4
:1013F0000E94150A07FC03D04EF40C94070A50957E
:101400004095309521953F4F4F4F5F4F08959095F0
:101410008095709561957F4F8F4F9F4F0895EE0F88
:10142000FF1F0590F491E02D0994A1E21A2EAA1B4A
:10143000BB1BFD010DC0AA1FBB1FEE1FFF1FA21784
:10144000B307E407F50720F0A21BB30BE40BF50B81
:10145000661F771F881F991F1A9469F7609570950A
:10146000809590959B01AC01BD01CF010895F89442
:02147000FFCFAC
:1014720008800A00000000009001F0001D01E20156
:0E1482004E012C0140016E616E6F53544B0001
:00000001FF
