:100000000C9435000C945D000C945D000C945D0024
:100010000C945D000C945D000C945D000C945D00EC
:100020000C945D000C945D000C945D000C949301A5
:100030000C945D000C945D000C945D000C945D00CC
:100040000C945D000C945D000C9456030C943103E9
:100050000C945D000C945D000C945D000C945D00AC
:100060000C945D000C945D00170711241FBECFEFA8
:10007000D8E0DEBFCDBF11E0A0E0B1E0ECEFFEE0E4
:1000800002C005900D92AA30B107D9F724E0AAE08A
:10009000B1E001C01D92A833B207E1F710E0C5E35B
:1000A000D0E004C02197FE010E945D07C433D10750
:1000B000C9F70E946E030C9463070C940000209112
:1000C0001B0130911C01809127029091280220325F
:1000D000310511F4807F08952034310511F4807EBC
:1000E00008952038310511F4807C089521153140A0
:1000F00009F480780895CF92DF92EF92FF920F93E8
:100100001F93CF93DF93082F162FD42FC22FC090A9
:100110000A01D0900B01E0900C01F0900D010E94BB
:10012000C701C61AD70AE80AF90A8EE1C816D1042F
:10013000E104F10458F428EE33E0C29EC001C39EEE
:10014000900DD29E900D11240E94D201602F80E369
:1001500092E00E94A402612F80E392E00E94A40238
:100160006D2F80E392E00E94A4026C2F80E392E066
:10017000DF91CF911F910F91FF90EF90DF90CF9083
:100180000C94A4022FEF482F692F80EA0C947B0077
:1001900083E392E00E9428038823D1F383E392E073
:1001A0000C94F9020F931F93CF93DF93C7E2D1E032
:1001B0008C01095D1E4FC017D10721F00E94C800B5
:1001C0008993F9CFDF91CF911F910F91089580917D
:1001D0002501853969F4809126018F3011F0843131
:1001E00079F484E090E090930101809300010895F8
:1001F000843939F480912601863099F38B3089F364
:100200000895833949F48091260196EF980F923032
:1002100040F38F30A9F7E5CF823949F48091260168
:100220009BEF980F9230E8F28A3051F7DACF81399C
:1002300039F780912601883019F7D3CFCF93C82F93
:100240000E94C800803281F464E183E392E00E945E
:1002500005036C2F83E392E00E94050360E183E3D2
:1002600092E0CF910C94050381E080932B0265E12D
:10027000F6CF0E94C800803251F464E183E392E03B
:100280000E94050360E183E392E00C94050381E0A2
:1002900080932B0265E1F7CF0E94B60140E052EC5B
:1002A00061E070E083E392E00E94D90252985A9A8A
:1002B00082E00E94DD01892B31F162E080E392E06F
:1002C0000E949F02539A82E18093B00081E0809364
:1002D000B1001092B3001092B200559A62E085E02E
:1002E0000E942402569A62E086E00E942402579AF5
:1002F00062E087E00E942402209A62E088E00E9487
:1003000024020C94470260E180E392E00E949F0285
:10031000539A82E18093B00081E08093B10087E03E
:100320008093B300D8CF1F921FB61F9211248F93D2
:100330009F93AF93BF9380912C0290912D02A09137
:100340002E02B0912F020196A11DB11D80932C02A7
:1003500090932D02A0932E02B0932F02BF91AF91E4
:100360009F918F911F901FBE1F901895E1E8F0E0BC
:1003700080818A60808387E08093890080ED80930C
:100380008800EFE6F0E08081826080830895F89431
:1003900060912C0270912D0280912E0290912F027B
:1003A000789408958230910538F0880F991F880F4E
:1003B000991F05970197F1F70895482F50E088306D
:1003C00070F449B121E030E0B90102C0660F771F37
:1003D0008A95E2F7CB0150E084239523089523B159
:1003E0004850510981E090E002C0880F991F4A955A
:1003F000E2F730E0822393230895282F30E08830FD
:1004000090F421E030E0A90102C0440F551F8A9505
:10041000E2F7CA019BB1662319F0892B8BB90895C5
:1004200080958923FBCF2850310981E090E001C0FD
:10043000880F2A95EAF795B1662319F0892B85B9BB
:10044000089580958923FBCFCF93DF93D82FC62FB4
:1004500061E08D2F0E94FD012FEF86E791E0215092
:1004600080409040E1F700C0000060E08D2F0E94C6
:10047000FD012FEF86E791E0215080409040E1F7A9
:1004800000C00000C15020F7DF91CF910895EAE746
:10049000F0E0808187608083ACE7B0E08C9180647D
:1004A0008C938081806880838081806480830895BC
:1004B00090917C00907F90937C0090917C00892BA0
:1004C00080937C0080917A00806480937A00809190
:1004D0007A0086FDFCCF8091780090917900089594
:1004E0001CBC1DBC239825980895FC01611102C015
:1004F000828108956283613110F01CBCF9CF6930AC
:1005000030F080E1828383E58CBD1DBCF1CF653086
:1005100038F088E0828383E58CBD81E08DBDE8CF33
:10052000633020F084E0828382E5F6CF623011F4FC
:1005300081E5EACF81E0828391E59CBDEFCF0E9407
:100540007502239A259A0895EF92FF920F931F93B5
:10055000CF93DF937C01D62FCCB5CC2369F06EBD51
:100560000DB407FEFDCFCEB58C2FDF91CF911F913B
:100570000F91FF90EF90089508E010E0CC0F1C99C8
:10058000C160D7FF14C02B9AF7018281869590E055
:100590000E94D2012D9AF7018281869590E00E94F7
:1005A000D2012D98DD0F0150110941F7DDCF2B98B5
:1005B000EBCF9A01AB01519A60E874E88EE190E0CC
:1005C0000E941C07215031093093C5002093C400BC
:1005D000E0ECF0E0808182608083E1ECF0E08081FB
:1005E00088698083E2ECF0E0808186608083789483
:1005F0000895809134048F5F80933404E091340433
:10060000F0E0EC5CFD4F80810895809137048F5FAE
:1006100080933704E0913704F0E0EC5CFC4F60839A
:10062000E1ECF0E080818062808308950F931F9356
:10063000CF93DF938C01EB016991161624F4C80166
:100640000E940503F9CFDF91CF911F910F9108957B
:10065000209134049091350481E0291301C080E099
:1006600008958F938FB78F939F93EF93FF9380910C
:1006700036048F5F80933604E0913604F0E0EC5C42
:10068000FC4F80818093C60090913604809137049E
:10069000981305C08091C1008F7D8093C100FF91A8
:1006A000EF919F918F918FBF8F9118958F938FB7F7
:1006B0008F93EF93FF93809135048F5F8093350480
:1006C000E0913504F0E08091C600EC5CFD4F808342
:1006D000FF91EF918F918FBF8F9118950E944C01E0
:1006E000CAE0D0E080912B0261E0811101C060E09E
:1006F00088E00E94FD0183E392E00E942803A82E77
:10070000882381F30E94C800803509F4B7C110F531
:10071000803409F4C8C068F4803309F4A9C0813377
:1007200009F4ABC0803269F481E080932B0265E16B
:10073000B5C0823409F40DC108F4D5C0853409F47C
:1007400092C181E080932B020E94C80062E1803256
:1007500071F7A4C0813609F424C228F5853509F45F
:10076000DBC1863509F4E7C1813559F710922B02B8
:1007700080E392E00E94700260910E0181E06827A0
:100780008AE00E94FD01229A60E085E00E94FD015E
:1007900010922A021092290210922401109225012F
:1007A0001092260167C0843709F491C2853709F495
:1007B00006C3843631F661E087E00E94FD010E94A5
:1007C000C800082F0E94C80010E0102F0027080F53
:1007D000111D0E94C800863409F027C2C8010E947A
:1007E000D2000E94C800803209F016C264E183E39F
:1007F00092E00E9405030E945F007C0157E2C52E33
:1008000051E0D52EB12CA12CA016B10608F0FCC1E8
:100810000E945F008E159F0549F020E04E2D6F2D40
:100820008CE40E947B000E945F007C0140912702C3
:1008300060912802F601208180E40E947B00F2E0B2
:10084000AF0EB11C4091270260912802F601218170
:1008500088E40E947B0080912702909128020196F3
:100860009093280280932702F2E0CF0ED11CCCCFC8
:1008700010922B020E94390135CF0E94C8008032AD
:1008800009F052CF64E183E392E00E94050362E045
:1008900071E083E392E00E94160360E183E392E05B
:1008A0000E9405031FCF0E94C800873851F0893885
:1008B00079F08638A9F40E94C80087708093B1004F
:1008C000D9CF0E94C8008093B3001092B200D2CF5B
:1008D0000E94C800682F80E392E00E947502CACF90
:1008E0000E94C800C7CF0E94C8008058893108F50F
:1008F000E82FF0E0EB59F84F0C945D0782E00E947E
:100900001E01F0CE81E0FBCF8FE1F9CF80E00E94A5
:1009100058029C01BC017695679590E080E0615299
:100920007C478F4F9F4F50E040E00E943E07822F50
:10093000E6CF80E0E4CF8091B1008770E0CF809176
:10094000B300DDCF80913202DACF83E5D8CF83E0E8
:10095000D6CF84E190E00E94D2002091270120931D
:100960000F018091280180931001809129018093CB
:10097000110180912A018093120180912B018093B3
:10098000130180912C018093140180912D0180939B
:10099000150180912E018093160180912F0190E026
:1009A000982F882730913001830F911D9093180163
:1009B000809317018091310190E0982F8827309122
:1009C0003201830F911D90931A0180931901809138
:1009D000330190E0982F882730913401830F911DC7
:1009E00090931C0180931B018091350190E0982F1A
:1009F000882730913601830F911D90931E018093BB
:100A00001D018091370190E0B0E0A0E0BA2FA92F3E
:100A1000982F882730913801830F911DA11DB11D9A
:100A2000BA2FA92F982F882730913901830F911D54
:100A3000A11DB11DBA2FA92F982F882730913A01F7
:100A4000830F911DA11DB11D80931F019093200163
:100A5000A0932101B093220181E0203E08F480E0C0
:100A600080930E0107CF0E94C800815090E00E9441
:100A7000D2008091270180932301FCCE80912A022D
:100A80008111F8CED0930101C09300011092290288
:100A900010922401109225011092260160910E01FE
:100AA0008AE00E94FD01229A60E080E392E00E94C9
:100AB0009F0260E08DE00E94FD012FEF89EF90E042
:100AC000215080409040E1F700C0000060910E018D
:100AD00011E061278AE00E94FD0184E690E00E9417
:100AE000D20160910E018AE00E94FD01EFEFF0E774
:100AF00022E0E150F0402040E1F700C0000020E09B
:100B000040E063E58CEA0E947B0061E085E00E94A2
:100B1000FD0110932A02AECE0E94C800182F0E9439
:100B2000C80090E0982F8827810F911D909328028C
:100B3000809327029FCE84E090E00E94D200209113
:100B40002A014091290160912801809127010E948A
:100B50007B00182F0E941E0180912701803341F4F1
:100B6000E0912901E33020F4F0E0EC5DFE4F1083CA
:100B700080912401882309F4B5CD90912501992312
:100B800009F4B0CD90912601992309F4ABCDD0930F
:100B90000101C09300018E3109F0A4CD0E94E7004D
:100BA000A1CD61E087E00E94FD010E94C800F82EFF
:100BB000009127021091280280912902882311F0C8
:100BC000000F111FC8010E94C200F816B1F02F2DAE
:100BD000402F612F80EC0E947B00109100010E9449
:100BE000C701610F711D811D911D60930A017093F2
:100BF0000B0180930C0190930D010E94390160E07C
:100C000087E00E94FD016ECD20E04E2D6F2D8CE41B
:100C10000E947B0060E104C081E080932B0265E1CB
:100C200083E392E00E940503EACF61E18534C1F7D6
:100C3000C0902702D090280280912902882311F0C9
:100C4000CC0CDD1CC8010E94D20037E2832E31E0BB
:100C5000932EF12CE12CB12CC7018C0D9D1D0E158E
:100C60001F0591F0F40171904F010E94C2007816A7
:100C700039F0272D4E2D6F2D81EC0E947B00BA2C70
:100C8000FFEFEF1AFF0AE8CFBB20B1F020E04C2DB8
:100C90006D2D82EC0E947B00109100010E94C70123
:100CA000610F711D811D911D60930A0170930B01ED
:100CB00080930C0190930D010E94C800803209F0CE
:100CC000ABCF64E183E392E00E940503A3CF61E030
:100CD00086E00E94FD010E94C800182F0E94C800F3
:100CE000E82E0E94C800082F0E94C800803259F0E8
:100CF00081E080932B0265E183E392E00E9405038B
:100D000060E086E07ECF812F90E0982F8827E80E64
:100D1000F92EF11C64E183E392E00E94050306349E
:100D200061F510E000E00E151F0508F046C0409187
:100D30002702609128022FEF80E20E947B00682F3B
:100D400083E392E00E94050340912702609128020C
:100D50002FEF88E20E947B00682F83E392E00E94DD
:100D60000503809127029091280201969093280212
:100D7000809327020E5F1F4FD6CF61E1053409F043
:100D8000BBCFC0902702D0902802809129028823EF
:100D900011F0CC0CDD1C10E000E0E016F10669F06B
:100DA000C8018C0D9D1D0E94C200682F83E392E054
:100DB0000E9405030F5F1F4FF0CF60E19DCF61E000
:100DC00086E00E94FD010E94C800803209F090CFA9
:100DD00081E08093290264E183E392E00E940503AD
:100DE00084E2E82E81E0F82E10E020E0412F60E060
:100DF00080E30E947B00F70181937F01682F83E3EA
:100E000092E00E9405031F5F133079F760E183E3EE
:100E100092E00E940503D0930101C09300018091EC
:100E200024018E3109F06CCF0E94E70069CFE0E326
:100E3000F2E0108211820895A1E21A2EAA1BBB1BB8
:100E4000FD010DC0AA1FBB1FEE1FFF1FA217B30796
:100E5000E407F50720F0A21BB30BE40BF50B661FAC
:100E6000771F881F991F1A9469F760957095809570
:100E700090959B01AC01BD01CF010895052E97FB14
:100E80001EF400940E94550757FD07D00E941C07CE
:100E900007FC03D04EF40C945507509540953095BF
:100EA00021953F4F4F4F5F4F0895909580957095D6
:100EB00061957F4F8F4F9F4F0895EE0FFF1F059055
:100EC000F491E02D0994F894FFCF7E048204840409
:100ED0009904860499049B049F049904A20499042C
:100EE000990499049904990499049904990499041A
:0C0EF000A5049904990499049904A7042E
:0A0EFC000A006E616E6F53544B0044
:00000001FF
