:100000000C9462000C948A000C948A000C948A0070
:100010000C948A000C948A000C948A000C948A0038
:100020000C948A000C948A000C948A000C948A0028
:100030000C948A000C948A000C948A000C948A0018
:100040000C9402040C948A000C94D0030C94AA0320
:100050000C948A000C948A000C948A000C948A00F8
:100060000C948A000C948A000000000025002800EF
:100070002B000000000023002600290000000008DB
:10008000000201000003040700000000000000005F
:1000900000000000240027002A00010204081020AC
:1000A000408001020408102001020408102004040A
:1000B0000404040404040202020202020303030310
:1000C0000303E20911241FBECFEFD8E0DEBFCDBF8E
:1000D00011E0A0E0B1E0E0EBF4E102C005900D9288
:1000E000A032B107D9F722E0A0E2B1E001C01D9231
:1000F000AE3EB207E1F710E0C2E6D0E004C02197BF
:10010000FE010E94500AC136D107C9F70E944C0473
:100110000C94560A0C940000AF92BF92CF92DF92DB
:10012000EF92FF920F931F93CF93DF936C017B01AC
:100130008B01040F151FEB015E01AE18BF08C0173D
:10014000D10759F06991D601ED91FC910190F081B0
:10015000E02DC6010995892B79F7C501DF91CF9173
:100160001F910F91FF90EF90DF90CF90BF90AF90D5
:100170000895FC01538D448D252F30E0842F90E0AD
:10018000821B930B541710F0CF9608950197089592
:10019000FC01918D828D981761F0A28DAE0FBF2F5B
:1001A000B11D5D968C91928D9F5F9F73928F90E0B1
:1001B00008958FEF9FEF0895FC01918D828D981720
:1001C00031F0828DE80FF11D858D90E008958FEF5D
:1001D0009FEF0895FC01918D228D892F90E0805C26
:1001E0009F4F821B91098F739927089581E592E0B3
:1001F0000E94EA0021E0892B09F420E0822F089573
:1002000080E090E0892B29F00E94F60081110C9487
:1002100000000895FC01A48DA80FB92FB11DA35AA9
:10022000BF4F2C91848D90E001968F739927848F16
:10023000A689B7892C93A089B1898C918370806439
:100240008C93938D848D981306C00288F389E02DDA
:1002500080818F7D80830895EF92FF920F931F938B
:10026000CF93DF93EC0181E0888F9B8D8C8D981369
:100270001AC0E889F989808185FF15C09FB7F89475
:10028000EE89FF896083E889F989808183708064C1
:1002900080839FBF81E090E0DF91CF911F910F910C
:1002A000FF90EF900895F62E0B8D10E00F5F1F4F1B
:1002B0000F731127E02E8C8D8E110CC00FB607FC2A
:1002C000FACFE889F989808185FFF5CFCE010E94B8
:1002D0000A01F1CFEB8DEC0FFD2FF11DE35AFF4F1B
:1002E000F0829FB7F8940B8FEA89FB898081806246
:1002F000CFCF682F81E592E00C942C01CF93DF9350
:10030000EC01888D8823B9F0AA89BB89E889F9892D
:100310008C9185FD03C0808186FD0DC00FB607FC62
:10032000F7CF8C9185FFF2CF808185FFEDCFCE0195
:100330000E940A01E9CFDF91CF910895833081F0C7
:1003400028F4813099F08230A9F008958730A9F01F
:100350008830C9F08430B1F4809180008F7D03C073
:10036000809180008F7780938000089584B58F7787
:1003700084BD089584B58F7DFBCF8091B0008F77C9
:100380008093B00008958091B0008F7DF9CF1F93C6
:10039000CF93DF93282F30E0F901E458FF4F849189
:1003A000F901E656FF4FD491F901E255FF4FC49190
:1003B000CC23A9F0162F81110E949E01EC2FF0E0B2
:1003C000EE0FFF1FE859FF4FA591B4918FB7F89436
:1003D000EC91111108C0D095DE23DC938FBFDF9123
:1003E000CF911F910895DE2BF8CFCF93DF9390E04C
:1003F000FC01E656FF4F249182559F4FFC018491EA
:100400008823C9F090E0880F991FFC01E057FF4F47
:10041000A591B491FC01E859FF4FC591D4916111A8
:100420000DC09FB7F8948C91209582238C9388817E
:10043000282328839FBFDF91CF910895623051F424
:100440009FB7F8943C91822F809583238C93E88109
:100450002E2BEFCF8FB7F894EC912E2B2C938FBFD0
:10046000EACF3FB7F8948091250190912601A091A1
:100470002701B091280126B5A89B05C02F3F19F090
:100480000196A11DB11D3FBFBA2FA92F982F882714
:10049000BC01CD01620F711D811D911D42E0660FEF
:1004A000771F881F991F4A95D1F708958F929F92C1
:1004B000AF92BF92CF92DF92EF92FF926B017C01DD
:1004C0000E9431024B015C01C114D104E104F1042A
:1004D000B9F00E943102681979098A099B09683EBE
:1004E00073408105910580F321E0C21AD108E1082B
:1004F000F10888EE880E83E0981EA11CB11CE4CFA1
:10050000FF90EF90DF90CF90BF90AF909F908F9033
:100510000895CF93DF93D82FC3E061E08D2F0E9421
:10052000C7016EE170E080E090E00E94560260E05A
:100530008D2F0E94C7016EE170E080E090E00E9484
:100540005602C15051F7DF91CF91089580914A0230
:10055000853969F480914B028F3011F0843179F440
:1005600084E090E09093040180930301089584391E
:1005700039F480914B02863099F38B3089F30895DA
:10058000833949F480914B0296EF980F923040F3F3
:100590008F30A9F7E5CF823949F480914B029BEF68
:1005A000980F9230E8F28A3051F7DACF813939F773
:1005B00080914B02883019F7D3CF81E592E00E94F9
:1005C000EA00892BD1F381E592E00E94C8000895EA
:1005D000CF93C82F0E94DD02803271F484E190E055
:1005E0000E9479016C2F81E592E00E942C0180E14C
:1005F00090E0CF910C94790181E08093500285E1E5
:1006000090E0F7CF0E94DD02803241F484E190E077
:100610000E94790180E190E00C94790181E080935F
:10062000500285E190E0F8CF0F931F93CF93DF93B3
:10063000C9E4D1E08C01075B1E4FC017D10721F040
:100640000E94DD028993F9CFDF91CF911F910F9125
:100650000895282F3FB7F8948091290190912A019D
:10066000A0912B01B0912C013FBF820F911DA11DC4
:10067000B11D8093200190932101A0932201B0939A
:100680002301089520913D0130913E0180914D025A
:1006900090914E022032310511F4807F089520346C
:1006A000310511F4807E08952038310511F4807CE5
:1006B00008952115314009F4807808958EBD000019
:1006C0000DB407FEFDCF8EB50895CF92DF92EF9265
:1006D000FF920F931F93CF93DF93082F162FD42FE2
:1006E000C22F60912001709121018091220190918F
:1006F00023012FB7F894C0902901D0902A01E090EF
:100700002B01F0902C012FBF6C197D098E099F09D8
:100710006F3F71058105910509F010F40E945602A2
:10072000802F0E945E03812F0E945E038D2F0E9406
:100730005E038C2FDF91CF911F910F91FF90EF906F
:10074000DF90CF900C945E032FEF482F692F80EA43
:100750000C9465031F920F920FB60F9211242F93E2
:100760003F934F935F936F937F938F939F93AF9339
:10077000BF93EF93FF9381E592E00E940A01FF91FE
:10078000EF91BF91AF919F918F917F916F915F9109
:100790004F913F912F910F900FBE0F901F90189582
:1007A0001F920F920FB60F9211242F938F939F9346
:1007B000EF93FF93E0916102F09162028081E091FA
:1007C0006702F091680282FD1BC0908180916A02ED
:1007D0008F5F8F7320916B02821741F0E0916A0264
:1007E000F0E0EF5AFD4F958F80936A02FF91EF91F1
:1007F0009F918F912F910F900FBE0F901F90189582
:100800008081F4CF1F920F920FB60F9211242F9375
:100810003F938F939F93AF93BF93809129019091C2
:100820002A01A0912B01B0912C013091240123E0E9
:10083000230F2D3758F50196A11DB11D20932401DA
:100840008093290190932A01A0932B01B0932C014E
:100850008091250190912601A0912701B091280156
:100860000196A11DB11D8093250190932601A093AF
:100870002701B0932801BF91AF919F918F913F9134
:100880002F910F900FBE0F901F90189526E8230F01
:100890000296A11DB11DD2CF789484B5826084BD2B
:1008A00084B5816084BD85B5826085BD85B5816074
:1008B00085BD80916E00816080936E0010928100F2
:1008C00080918100826080938100809181008160AD
:1008D000809381008091800081608093800080916E
:1008E000B10084608093B1008091B00081608093FA
:1008F000B00080917A00846080937A0080917A00C1
:10090000826080937A0080917A00816080937A007F
:1009100080917A00806880937A001092C100E09103
:100920006102F091620282E08083E0915D02F091C9
:100930005E021082E0915F02F091600280E18083AC
:1009400010926902E0916502F091660286E0808370
:10095000E0916302F0916402808180618083E09184
:100960006302F0916402808188608083E091630279
:10097000F0916402808180688083E0916302F0914D
:10098000640280818F7D808362E082E00E94F501B5
:10099000EEE7F0E08491ECE9F0E0D491E0EBF0E0F8
:1009A000C491CC2379F081110E949E01EC2FF0E0DC
:1009B000EE0FFF1FEE58FF4FA591B491EC91ED2380
:1009C00082E009F488E08093020161E085E00E9402
:1009D000F50185E00E94890261E086E00E94F50150
:1009E00086E00E94890261E087E00E94F50187E0CD
:1009F0000E94890261E088E00E94F50188E00E947F
:100A0000890261E089E00E94F50161E083E00E94D3
:100A1000F50182E18093B00081E08093B10087E02E
:100A20008093B3001092B200F0E84F2EF4E85F2EEE
:100A3000FEE16F2E712CAAE0CA2ED12C80915002BB
:100A400061E0811101C060E088E00E94C7012FB71A
:100A5000F8948091290190912A01A0912B01B091E5
:100A60002C012FBF40912D0150912E0160912F013B
:100A7000709130018C019D01041B150B260B370B67
:100A8000B901A801483251056105710518F180933B
:100A90002D0190932E01A0932F01B0933001C091AE
:100AA000010180910001C13A20F0819580930001FD
:100AB00002C0C031D0F380910001C80FC093010182
:100AC00061E089E00E94F501C11126C060E089E083
:100AD0000E94C70181E592E00E94EA00892B09F497
:100AE0007DC10E94DD02803509F44DC208F06EC060
:100AF000803409F42AC108F056C0803309F40AC1D1
:100B0000813309F40CC1803209F055C081E0809333
:100B1000500285E190E016C1CF3F11F461E0D7CFDC
:100B2000E5E8F0E08491833019F138F48130B1F0D8
:100B30008230C9F0C7FDF2CFC9CF873021F18830AC
:100B400051F18430B9F780918000806280938000F9
:100B5000D0E0D0938B00C0938A00BCCF84B580686E
:100B600084BDC7BDB7CF84B5806284BDC8BDB2CFD8
:100B700080918000806880938000D0E0D0938900CD
:100B8000C0938800A7CF8091B00080688093B000A8
:100B9000C093B3009FCF8091B00080628093B0007B
:100BA000C093B40097CF823409F458C108F4EEC062
:100BB000853409F4DDC181E0809350020E94DD029A
:100BC000803209F0A6CF82E190E0BCC0813609F402
:100BD000CBC208F03FC0853509F481C2863509F4DF
:100BE0008EC2813541F7109250029FB7F8948091E0
:100BF0004701882319F08150809347018091470174
:100C0000811105C08CB58F7B8CBD109246019FBFB2
:100C100060E08BE00E94F50160E08DE00E94F5014C
:100C20006091480181E068278AE00E94C70160E086
:100C30008AE00E94F50160E085E00E94C701109201
:100C40004F0210924C021092490210924A021092E6
:100C50004B0262C0843709F40FC3853709F480C39F
:100C6000843609F0A8CF61E087E00E94C7010E94A6
:100C7000DD02C82F0E94DD02D0E0DC2FCC27C80F98
:100C8000D11D0E94DD02863409F0A9C2CE010E9466
:100C900014030E94DD02803209F099C284E190E0E1
:100CA0000E9479010E9442037C0159E4A52E51E083
:100CB000B52EC501895491408C179D0708F07BC261
:100CC0000E9442038E159F0549F020E04E2D6F2DA6
:100CD0008CE40E9465030E9442037C0100914D0256
:100CE00010914E02F5012081402F612F80E40E9477
:100CF0006503F5012181402F612F88E40E9465037F
:100D00000F5F1F4F10934E0200934D02F2E0AF0EA3
:100D1000B11CCFCF109250020E9402035FC00E940C
:100D2000DD02803209F0F2CE84E190E00E94790188
:100D300047E050E067E171E081E592E00E948C00BD
:100D400080E190E00E94790149C00E94DD0287386D
:100D500051F0893879F08638B1F40E94DD0287704D
:100D60008093B100D9CF0E94DD028093B30010922E
:100D7000B200D2CF0E94DD02893018F480930201C4
:100D8000CBCF88E0FBCF0E94DD02C6CF0E94DD0200
:100D90008058893108F052C0E82FF0E0EE52F94F48
:100DA0000C94500AEB06FB06FD061E07FF061E0705
:100DB000200724071E0727071E071E071E071E07FA
:100DC0001E071E071E071E071E072A071E071E07EF
:100DD0001E071E072C0782E00E94E80200E010E0D8
:100DE000012B09F42BCE0E94F600882309F426CEAD
:100DF0000E94000023CE81E0EFCF8BE1EDCF80E4B5
:100E000080937C0080917A00806480937A00809146
:100E10007A0086FDFCCF2091780030917900B901ED
:100E20007695679590E080E061527C478F4F9F4FA9
:100E300050E040E00E94310A822FCECF80E0CCCF3C
:100E40008091B1008770C8CF8091B300C5CF8091E9
:100E50000201C2CF83E5C0CF83E0BECF84E190E042
:100E60000E941403209149012093310180914A018D
:100E70008093320180914B018093330180914C012A
:100E80008093340180914D018093350180914E0112
:100E90008093360180914F018093370180915001FA
:100EA000809338018091510190E0982F88273091EC
:100EB0005201830F911D90933A01809339018091E3
:100EC000530190E0982F882730915401830F911D92
:100ED00090933C0180933B018091550190E0982FC5
:100EE000882730915601830F911D90933E01809386
:100EF0003D018091570190E0982F8827309158014B
:100F0000830F911D9093400180933F01809159017F
:100F100090E0B0E0A0E0BA2FA92F982F8827309159
:100F20005A01830F911DA11DB11DBA2FA92F982F12
:100F3000882730915B01830F911DA11DB11DBA2F30
:100F4000A92F982F882730915C01830F911DA11D37
:100F5000B11D8093410190934201A0934301B0934E
:100F6000440181E0203E08F480E080934801D4CE23
:100F70000E94DD02815090E00E941403809149019B
:100F800080934501C9CE80914F028111C5CED09288
:100F90000401C092030110924C0210924902109277
:100FA0004A0210924B02609148018AE00E94C701F8
:100FB00061E08AE00E94F501CFB7F8948091470183
:100FC000811127C0E8EBF0E09491E4EAF0E084912D
:100FD000E92FF0E0EE0FFF1FE057FF4FA591B4910E
:100FE0009C91892321F461E08AE00E94C70161E0BD
:100FF0008AE00E94F5018CB580618CBD8CB580645F
:101000008CBD61E08DE00E94F50161E08BE00E9403
:10101000F501809147018F5F80934701CFBF2091F9
:10102000020130E050E040E0C301B2010E940F0A2B
:1010300080E0812CA2E19A2EAAE7AA2EB12CB694C8
:10104000A794979487948F5F863011F487E005C04A
:10105000281539054A055B0590F3982F906A9695F7
:101060008095817020914601222351F02FB7F8948A
:1010700030914601313021F43DB33DB33DBB2FBF2C
:101080009CBD8DBD60E08DE00E94C70164E170E011
:1010900080E090E00E945602D0914801C1E06D2F9F
:1010A0006C278AE00E94C7018BE891E00197F1F775
:1010B0006D2F8AE00E94C70162E370E080E090E05B
:1010C0000E94560220E040E063E58CEA0E9465033E
:1010D00061E085E00E94C701C0934F021DCE0E94CF
:1010E000DD02C82F0E94DD0290E0982F8827C80FEC
:1010F000D92FD11DD0934E02C0934D020DCE84E066
:1011000090E00E941403C0914B011091490120917D
:101110004C014C2F60914A01812F0E946503D82F0A
:101120000E94E802103339F4C33028F4EC2FF0E0C9
:10113000E75BFD4FD08380914902882309F44ECEAE
:1011400090914A02992309F449CE90914B02992338
:1011500009F444CED0920401C09203018E3109F00B
:101160003DCE0E94A6023ACE61E087E00E94C70110
:101170000E94DD02182FC0914D02D0914E02809145
:101180004C02882311F0CC0FDD1FCE010E94A40376
:10119000181751F0212F4C2F6D2F80EC0E94650302
:1011A000809103010E9429030E94020360E087E00E
:1011B0000E94C70113CE20E04E2D6F2D8CE40E94BB
:1011C000650360E181E592E00E942C01EFCF81E0B0
:1011D0008093500285E190E00E947901E7CF853449
:1011E00009F047C000914D0210914E0280914C02CF
:1011F000882311F0000F111FCE010E94140339E45F
:10120000A32E31E0B32EF12CE12C312C980129547E
:1012100031404901C4018A0D9B1DCE15DF0599F0AF
:10122000F50121905F010E94A403281641F0222DB0
:101230004E2D6F2D81EC0E94650333243394FFEF14
:10124000EF1AFF0AE7CF332051F020E0402F612F43
:1012500082EC0E946503809103010E9429030E9491
:10126000DD02803209F0B3CF84E190E00E94790181
:10127000A8CF81E190E0B0CF61E086E00E94C70195
:101280000E94DD02C82F0E94DD02E82E0E94DD02CE
:10129000D82F0E94DD02803251F081E0809350020D
:1012A00085E190E00E94790160E086E081CF8C2F9B
:1012B00090E0982F8827E80EF92EF11C84E190E049
:1012C0000E947901D63441F510E000E00E151F05AB
:1012D00008F040C0C0914D02D0914E022FEF4C2F2C
:1012E0006D2F80E20E946503682F81E592E00E94E5
:1012F0002C012FEF4C2F6D2F88E20E946503682F81
:1013000081E592E00E942C012196D0934E02C09379
:101310004D020E5F1F4FDACF61E1D534E1F4009149
:101320004D0210914E0280914C02882311F0000F63
:10133000111FD0E0C0E0EC16FD0661F0CE01800F79
:10134000911F0E94A403682F81E592E00E942C0166
:101350002196F1CF60E181E592E00E942C01A4CFBB
:1013600061E086E00E94C7010E94DD02803209F040
:1013700094CF81E080934C0284E190E00E94790157
:10138000C9E4D2E010E020E0412F60E080E30E9459
:1013900065038993682F81E592E00E942C011F5F0D
:1013A000133089F780E190E00E947901D092040126
:1013B000C0920301809149028E3109F075CF0E94DD
:1013C000A60272CFE1E5F2E01382128288EE93E08A
:1013D000A0E0B0E084839583A683B78389E091E0A1
:1013E0009183808385EC90E09587848784EC90E0FE
:1013F0009787868780EC90E0918B808B81EC90E0E2
:10140000938B828B82EC90E0958B848B86EC90E0C2
:10141000978B868B118E128E138E148E0895A1E2F7
:101420001A2EAA1BBB1BFD010DC0AA1FBB1FEE1F5E
:10143000FF1FA217B307E407F50720F0A21BB30BA9
:10144000E40BF50B661F771F881F991F1A9469F725
:1014500060957095809590959B01AC01BD01CF0181
:101460000895052E97FB1EF400940E94480A57FD2C
:1014700007D00E940F0A07FC03D04EF40C94480AD0
:1014800050954095309521953F4F4F4F5F4F0895B0
:1014900090958095709561957F4F8F4F9F4F0895E0
:1014A000EE0FFF1F0590F491E02D0994F894FFCF03
:1014B0000880020A00000000002C018C00B9007EA8
:1014C00001EA00C800DC006E616E6F53544B0000EF
:00000001FF
