:100000000C9435000C945D000C945D000C945D0024
:100010000C945D000C945D000C945D000C945D00EC
:100020000C945D000C945D000C945D000C94B9017F
:100030000C945D000C945D000C945D000C945D00CC
:100040000C945D000C945D000C94FC030C94D7039D
:100050000C945D000C945D000C945D000C945D00AC
:100060000C945D000C945D00D20711241FBECFEFED
:10007000D8E0DEBFCDBF11E0A0E0B1E0E2E7F0E103
:1000800002C005900D92AC30B107D9F724E0ACE086
:10009000B1E001C01D92AF33B207E1F710E0C5E354
:1000A000D0E004C02197FE010E941808C433D10794
:1000B000C9F70E9414040C941E080C9400002091AF
:1000C00022013091230180912E0290912F02203243
:1000D000310511F4807F08952034310511F4807EBC
:1000E00008952038310511F4807C089521153140A0
:1000F00009F480780895CF93C82F0E94ED016C0F0A
:10010000711D811D911D60930C0170930D018093F1
:100110000E0190930F01CF910895CF92DF92EF924D
:10012000FF920F931F93CF93DF93082F162FD42F97
:10013000C22FC0900C01D0900D01E0900E01F09004
:100140000F010E94ED01C61AD70AE80AF90A8EE1EA
:10015000C816D104E104F10458F428EE33E0C29E3D
:10016000C001C39E900DD29E900D11240E94F801F3
:10017000602F87E392E00E944A03612F87E392E0B9
:100180000E944A036D2F87E392E00E944A036C2F7E
:1001900087E392E0DF91CF911F910F91FF90EF9055
:1001A000DF90CF900C944A032FEF482F692F80EAFD
:1001B0000C948D0020E0482F692F8CE40E948D0064
:1001C00085E00C947B008AE392E00E94CE038823B2
:1001D000D1F38AE392E00C949F030F931F93CF9384
:1001E000DF93CEE2D1E08C01025D1E4FC017D10734
:1001F00021F00E94E3008993F9CFDF91CF911F9105
:100200000F91089580912C01853969F480912D0119
:100210008F3011F0843179F484E090E09093020102
:10022000809301010895843939F480912D0186303D
:1002300099F38B3089F30895833949F480912D0126
:1002400096EF980F923040F38F30A9F7E5CF8239BF
:1002500049F480912D019BEF980F9230E8F28A309B
:1002600051F7DACF813939F780912D01883019F7AC
:10027000D3CFCF93C82F0E94E300803281F464E192
:100280008AE392E00E94AB036C2F8AE392E00E9423
:10029000AB0360E18AE392E0CF910C94AB0381E081
:1002A0008093320265E1F6CF0E94E300803251F480
:1002B00064E18AE392E00E94AB0360E18AE392E0AA
:1002C0000C94AB0381E08093320265E1F7CF0E948A
:1002D000DC0140E052EC61E070E08AE392E00E94D1
:1002E0007F0382E00E941F0282E00E946002892B4D
:1002F00081F162E087E392E00E941903539A82E160
:100300008093B00081E08093B1001092B30010920E
:10031000B20085E00E94460262E085E00E94A702EA
:1003200086E00E94460262E086E00E94A70287E023
:100330000E94460262E087E00E94A70288E00E94D5
:10034000460262E088E00E94A7020E94F3020C9439
:10035000CA0260E187E392E00E941903539A82E1A6
:100360008093B00081E08093B10087E08093B30078
:10037000CECF1F921FB61F9211248F939F93AF93DE
:10038000BF938091330290913402A0913502B091D5
:1003900036020196A11DB11D809333029093340261
:1003A000A0933502B0933602BF91AF919F918F9188
:1003B0001F901FBE1F901895E1E8F0E080818A60D1
:1003C000808387E08093890080ED80938800EFE64A
:1003D000F0E08081826080830895F8946091330218
:1003E000709134028091350290913602789408958C
:1003F0008230910538F0880F991F880F991F059753
:100400000197F1F70895282F30E0883058F49AB119
:1004100021E030E001C0220F8A95EAF720952923D8
:100420002AB9089544B12850310981E090E001C013
:10043000880F2A95EAF78095842384B90895282F98
:1004400030E0883090F44AB121E030E0B90102C0D8
:10045000660F771F8A95E2F7CB01962F909594232C
:100460009AB99BB1892B8BB9089544B128503109B1
:1004700081E090E001C0880F2A95EAF7982F9095C7
:10048000942394B995B1892B85B90895482F50E0EC
:10049000883050F49AB121E030E001C0220F8A95F3
:1004A000EAF7922B9AB9089584B14850510921E096
:1004B00030E001C0220F4A95EAF7822B84B90895F3
:1004C000482F50E0883070F449B121E030E0B901A4
:1004D00002C0660F771F8A95E2F7CB0150E08423B4
:1004E0009523089523B14850510981E090E002C05E
:1004F000880F991F4A95E2F730E0822393230895ED
:10050000282F30E0883090F421E030E0A90102C0CB
:10051000440F551F8A95E2F7CA019BB1662319F073
:10052000892B8BB9089580958923FBCF28503109F9
:1005300081E090E001C0880F2A95EAF795B1662323
:1005400019F0892B85B9089580958923FBCFCF9326
:10055000DF93D82FC62F61E08D2F0E9480022FEFEE
:1005600086E791E0215080409040E1F700C0000014
:1005700060E08D2F0E9480022FEF86E791E02150EE
:1005800080409040E1F700C00000C15020F7DF91AB
:10059000CF910895EAE7F0E0808187608083ACE73F
:1005A000B0E08C9180648C938081806880838081AE
:1005B00080648083089590917C00907F90937C006C
:1005C00090917C00892B80937C0080917A008064DC
:1005D00080937A0080917A0086FDFCCF809178002C
:1005E00090917900089582E88093800089E180935A
:1005F00081008FE79EE3909387008093860010929E
:10060000890010928800219A089520EA829FC001F3
:10061000112480382EE3920710F08FE79EE3909329
:1006200089008093880008951CBC1DBC23982598E0
:100630000895FC01611106C06281613128F01CBC83
:10064000828108956283F9CF693030F080E182833E
:1006500083E58CBD1DBCF4CF653038F088E0828323
:1006600083E58CBD81E08DBDEBCF633020F084E06D
:10067000828382E5F6CF623019F4628381E5E9CFA7
:1006800081E0828391E59CBDEECF0E941903239AFD
:10069000259A0895EF92FF920F931F93CF93DF93C4
:1006A0007C01D62FCCB5CC2369F06EBD0DB407FE0E
:1006B000FDCFCEB58C2FDF91CF911F910F91FF9081
:1006C000EF90089508E010E0CC0F1C99C160D7FFAF
:1006D00014C02B9AF7018281869590E00E94F80160
:1006E0002D9AF7018281869590E00E94F8012D985D
:1006F000DD0F0150110941F7DDCF2B98EBCF9A01A7
:10070000AB01519A60E874E88EE190E00E94D7074F
:10071000215031093093C5002093C400E0ECF0E093
:10072000808182608083E1ECF0E080818869808351
:10073000E2ECF0E080818660808378940895809177
:100740003B048F5F80933B04E0913B04F0E0E55C69
:10075000FD4F8081089580913E048F5F80933E0419
:10076000E0913E04F0E0E55CFC4F6083E1ECF0E0FA
:1007700080818062808308950F931F93CF93DF93CE
:100780008C01EB016991161624F4C8010E94AB0399
:10079000F9CFDF91CF911F910F91089520913B04E4
:1007A00090913C0481E0291301C080E008958F936B
:1007B0008FB78F939F93EF93FF9380913D048F5F4B
:1007C00080933D04E0913D04F0E0E55CFC4F8081C6
:1007D0008093C60090913D0480913E04981305C01B
:1007E0008091C1008F7D8093C100FF91EF919F9117
:1007F0008F918FBF8F9118958F938FB78F93EF93B2
:10080000FF9380913C048F5F80933C04E0913C0413
:10081000F0E08091C600E55CFD4F8083FF91EF9191
:100820008F918FBF8F9118950E94670195E0992E47
:100830002BEF822E3AE0E32EF12C8091320261E020
:10084000811101C060E088E00E9480020E94ED01F9
:1008500000911101109112012091130130911401A6
:100860005B016C01A01AB10AC20AD30A9601850184
:100870000233110521053105B8F060931101709321
:1008800012018093130190931401809115010E942D
:1008900005039091150194362CF18092000180910E
:1008A0000001890F809315018AE392E00E94CE0334
:1008B000782E882311F20E94E300803509F4BBC131
:1008C00038F5803409F4CCC090F4803309F4ADC01D
:1008D000813309F4AFC0803291F481E08093320219
:1008E00065E1B9C01916DCF290920001D8CF8234CC
:1008F00009F40CC108F4D4C0853409F491C181E035
:10090000809332020E94E30062E1803249F7A3C083
:10091000813609F420C238F5853509F4D7C186350A
:1009200009F4E3C1813559F71092320287E392E06E
:100930000E9414036091100181E068278AE00E9400
:1009400080028AE00E94030260E085E00E9480024B
:10095000109231021092300210922B0110922C0151
:1009600010922D0164C0843709F470C2853709F4F0
:10097000E3C2843621F661E087E00E9480020E9493
:10098000E300C82F0E94E300D0E0DC2FCC27C80F83
:10099000D11D0E94E300863409F012C2CE010E94EC
:1009A000ED000E94E300803209F001C264E18AE3B5
:1009B00092E00E94AB030E945F008C015EE2C52EB4
:1009C00051E0D52EB12CA12CAC16BD0608F0EAC121
:1009D0000E945F008017910731F0C8010E94DA0081
:1009E0000E945F008C0140912E0260912F02F6015F
:1009F000208180E40E948D00F2E0AF0EB11C409196
:100A00002E0260912F02F601218188E40E948D0060
:100A100080912E0290912F02019690932F02809345
:100A20002E02F2E0CF0ED11CCFCF109232020E94E4
:100A3000540103CF0E94E300803209F04ECF64E1FD
:100A40008AE392E00E94AB0363E071E08AE392E004
:100A50000E94BC0360E18AE392E00E94AB03EDCE0A
:100A60000E94E300873861F0893879F08638A9F46C
:100A70000E94E30087708093B1001092B200D7CF3C
:100A80000E94E3008093B300F8CF0E94E300682F38
:100A900087E392E00E941903CACF0E94E300C7CF08
:100AA0000E94E3008058893108F5E82FF0E0E05E0D
:100AB000F74F0C94180882E00E943901BECE81E005
:100AC000FBCF84E3F9CF80E00E94DB029C01BC01F4
:100AD0007695679590E080E061527C478F4F9F4FFD
:100AE00050E040E00E94F907822FE6CF80E0E4CF9B
:100AF0008091B1008770E0CF8091B300DDCF80910D
:100B00003902DACF83E5D8CF83E0D6CF84E190E015
:100B10000E94ED0020912E012093160180912F015B
:100B200080931701809130018093180180913101E9
:100B3000809319018091320180931A0180913301D1
:100B400080931B018091340180931C0180913501B9
:100B500080931D018091360190E0982F8827309175
:100B60003701830F911D90931F0180931E01809187
:100B7000380190E0982F882730913901830F911D1B
:100B8000909321018093200180913A0190E0982F69
:100B9000882730913B01830F911D9093230180930F
:100BA000220180913C0190E0982F882730913D01EF
:100BB000830F911D909325018093240180913E0124
:100BC00090E0B0E0A0E0BA2FA92F982F88273091AD
:100BD0003F01830F911DA11DB11DBA2FA92F982F81
:100BE000882730914001830F911DA11DB11DBA2F9F
:100BF000A92F982F882730914101830F911DA11DA6
:100C0000B11D8093260190932701A0932801B093F2
:100C1000290181E0203E08F480E08093100107CF95
:100C20000E94E300815090E00E94ED0080912E012F
:100C300080932A01FCCE809131028111F8CEF0928E
:100C40000201E09201011092300210922B011092E9
:100C50002C0110922D01609110018AE00E94800207
:100C60008AE00E94460260E087E392E00E9445032A
:100C700060E08DE00E94800284E690E00E94F8012E
:100C800060911001C1E06C278AE00E94800284E636
:100C900090E00E94F801609110018AE00E948002B9
:100CA0002FE788E391E0215080409040E1F700C0B9
:100CB000000020E040E063E58CEA0E948D0061E0E6
:100CC00085E00E948002C0933102B1CE0E94E30011
:100CD000C82F0E94E30090E0982F88278C0F911D69
:100CE00090932F0280932E02A2CE84E090E00E9487
:100CF000ED00209131014091300160912F018091F0
:100D00002E010E948D00C82F0E94390180912E0172
:100D1000803341F4E0913001E33020F4F0E0E55D10
:100D2000FE4FC08380912B01882309F486CD9091DA
:100D30002C01992309F481CD90912D01992309F477
:100D40007CCDF0920201E09201018E3109F075CD67
:100D50000E94020172CD61E087E00E9480020E9441
:100D6000E300182FC0912E02D0912F028091300203
:100D7000882311F0CC0FDD1FCE010E94D40018177C
:100D800051F0212F4C2F6D2F80EC0E948D0080910F
:100D900001010E947B000E94540160E087E00E94F4
:100DA00080024BCDC8010E94DA0060E104C081E0FE
:100DB0008093320265E18AE392E00E94AB03EDCFBB
:100DC00061E18534C1F700912E0210912F028091CC
:100DD0003002882311F0000F111FCE010E94ED0098
:100DE0003EE2C32E31E0D32EB12CA12C612CC501E3
:100DF000800F911FCA15DB0591F0F60151906F012C
:100E00000E94D400581639F0252D4A2D6B2D81EC07
:100E10000E948D00672CFFEFAF1ABF0AE8CF662053
:100E200051F020E0402F612F82EC0E948D008091D4
:100E300001010E947B000E94E300803209F0B7CFDD
:100E400064E18AE392E00E94AB03AFCF61E086E009
:100E50000E9480020E94E300C82F0E94E300082F36
:100E60000E94E300D82F0E94E300803259F081E015
:100E70008093320265E18AE392E00E94AB0360E076
:100E800086E08DCF8C2F90E0982F8827080F192FA0
:100E9000111D64E18AE392E00E94AB03D63459F558
:100EA000D0E0C0E0C017D10708F044C040912E0246
:100EB00060912F022FEF80E20E948D00682F8AE35D
:100EC00092E00E94AB0340912E0260912F022FEF1F
:100ED00088E20E948D00682F8AE392E00E94AB03B3
:100EE00080912E0290912F02019690932F02809371
:100EF0002E022296D7CF61E1D53409F0BCCFC09045
:100F00002E02D0902F0280913002882311F0CC0C59
:100F1000DD1CD0E0C0E00C171D0761F0CE018C0D88
:100F20009D1D0E94D400682F8AE392E00E94AB03CB
:100F30002196F1CF60E19FCF61E086E00E948002C0
:100F40000E94E300803209F092CF81E0809330026A
:100F500064E18AE392E00E94AB030BE211E0C0E09F
:100F600020E04C2F60E080E30E948D00F801819327
:100F70008F01682F8AE392E00E94AB03CF5FC330FA
:100F800079F760E18AE392E00E94AB03F0920201FC
:100F9000E092010180912B018E3109F070CF0E9407
:100FA00002016DCFE7E3F2E0108211820895A1E221
:100FB0001A2EAA1BBB1BFD010DC0AA1FBB1FEE1FD3
:100FC000FF1FA217B307E407F50720F0A21BB30B1E
:100FD000E40BF50B661F771F881F991F1A9469F79A
:100FE00060957095809590959B01AC01BD01CF01F6
:100FF0000895052E97FB1EF400940E94100857FDDB
:1010000007D00E94D70707FC03D04EF40C941008B9
:1010100050954095309521953F4F4F4F5F4F089524
:1010200090958095709561957F4F8F4F9F4F089554
:10103000EE0FFF1F0590F491E02D0994F894FFCF77
:101040005B055F05610576056305760578057C051A
:1010500076057F05760576057605760576057605AF
:10106000760576057605820576057605760576059C
:021070008405F5
:0C107200050A006E616E6F53544B0000C5
:00000001FF
