:100000000C9462000C948A000C948A000C948A0070
:100010000C948A000C948A000C948A000C948A0038
:100020000C948A000C948A000C948A000C948A0028
:100030000C948A000C948A000C948A000C948A0018
:100040000C943D040C948A000C940B040C94E5036E
:100050000C948A000C948A000C948A000C948A00F8
:100060000C948A000C948A000000000023002600F3
:10007000290000000000250028002B0000000008D7
:10008000000201000003040700000000000000005F
:1000900000000000240027002A00010204081020AC
:1000A000408001020408102001020408102004040A
:1000B0000404040404040202020202020303030310
:1000C0000303DB0911241FBECFEFD8E0DEBFCDBF95
:1000D00011E0A0E0B1E0E2EAF4E102C005900D9287
:1000E000A432B107D9F722E0A4E2B1E001C01D9229
:1000F000A23FB207E1F710E0C2E6D0E004C02197CA
:10010000FE010E94490AC136D107C9F70E9487043F
:100110000C944F0A0C940000AF92BF92CF92DF92E2
:10012000EF92FF920F931F93CF93DF936C017B01AC
:100130008B01040F151FEB015E01AE18BF08C0173D
:10014000D10759F06991D601ED91FC910190F081B0
:10015000E02DC6010995892B79F7C501DF91CF9173
:100160001F910F91FF90EF90DF90CF90BF90AF90D5
:100170000895FC01538D448D252F30E0842F90E0AD
:10018000821B930B541710F0CF9608950197089592
:10019000FC01918D828D981761F0A28DAE0FBF2F5B
:1001A000B11D5D968C91928D9F5F9F73928F90E0B1
:1001B00008958FEF9FEF0895FC01918D828D981720
:1001C00031F0828DE80FF11D858D90E008958FEF5D
:1001D0009FEF0895FC01918D228D892F90E0805C26
:1001E0009F4F821B91098F739927089585E592E0AF
:1001F0000E94EA0021E0892B09F420E0822F089573
:1002000080E090E0892B29F00E94F60081110C9487
:1002100000000895FC01A48DA80FB92FB11DA35AA9
:10022000BF4F2C91848D90E001968F739927848F16
:10023000A689B7892C93A089B1898C918370806439
:100240008C93938D848D981306C00288F389E02DDA
:1002500080818F7D80830895EF92FF920F931F938B
:10026000CF93DF93EC0181E0888F9B8D8C8D981369
:100270001AC0E889F989808185FF15C09FB7F89475
:10028000EE89FF896083E889F989808183708064C1
:1002900080839FBF81E090E0DF91CF911F910F910C
:1002A000FF90EF900895F62E0B8D10E00F5F1F4F1B
:1002B0000F731127E02E8C8D8E110CC00FB607FC2A
:1002C000FACFE889F989808185FFF5CFCE010E94B8
:1002D0000A01F1CFEB8DEC0FFD2FF11DE35AFF4F1B
:1002E000F0829FB7F8940B8FEA89FB898081806246
:1002F000CFCF682F85E592E00C942C01CF93DF934C
:10030000EC01888D8823B9F0AA89BB89E889F9892D
:100310008C9185FD03C0808186FD0DC00FB607FC62
:10032000F7CF8C9185FFF2CF808185FFEDCFCE0195
:100330000E940A01E9CFDF91CF910895833081F0C7
:1003400028F4813099F08230A9F008958730A9F01F
:100350008830C9F08430B1F4809180008F7D03C073
:10036000809180008F7780938000089584B58F7787
:1003700084BD089584B58F7DFBCF8091B0008F77C9
:100380008093B00008958091B0008F7DF9CF1F93C6
:10039000CF93DF93282F30E0F901E458FF4F849189
:1003A000F901E656FF4FD491F901E255FF4FC49190
:1003B000CC23A9F0162F81110E949E01EC2FF0E0B2
:1003C000EE0FFF1FEE58FF4FA591B4918FB7F89431
:1003D000EC91111108C0D095DE23DC938FBFDF9123
:1003E000CF911F910895DE2BF8CFCF93DF9390E04C
:1003F000FC01E656FF4F249182559F4FFC018491EA
:100400008823C9F090E0880F991FFC01E057FF4F47
:10041000A591B491FC01EE58FF4FC591D4916111A3
:100420000DC09FB7F8948C91209582238C9388817E
:10043000282328839FBFDF91CF910895623051F424
:100440009FB7F8943C91822F809583238C93E88109
:100450002E2BEFCF8FB7F894EC912E2B2C938FBFD0
:10046000EACF3FB7F8948091290190912A01A09199
:100470002B01B0912C0126B5A89B05C02F3F19F088
:100480000196A11DB11D3FBFBA2FA92F982F882714
:10049000BC01CD01620F711D811D911D42E0660FEF
:1004A000771F881F991F4A95D1F708958F929F92C1
:1004B000AF92BF92CF92DF92EF92FF926B017C01DD
:1004C0000E9431024B015C01C114D104E104F1042A
:1004D000B9F00E943102681979098A099B09683EBE
:1004E00073408105910580F321E0C21AD108E1082B
:1004F000F10888EE880E83E0981EA11CB11CE4CFA1
:10050000FF90EF90DF90CF90BF90AF909F908F9033
:100510000895CF93DF93D82FC3E061E08D2F0E9421
:10052000C7016EE170E080E090E00E94560260E05A
:100530008D2F0E94C7016EE170E080E090E00E9484
:100540005602C15051F7DF91CF91089580914E022C
:10055000853969F480914F028F3011F0843179F43C
:1005600084E090E090930801809307010895843916
:1005700039F480914F02863099F38B3089F30895D6
:10058000833949F480914F0296EF980F923040F3EF
:100590008F30A9F7E5CF823949F480914F029BEF64
:1005A000980F9230E8F28A3051F7DACF813939F773
:1005B00080914F02883019F7D3CFCF93DF93EEE7C6
:1005C000F0E08491ECE9F0E0D491E0EBF0E0C4914C
:1005D000CC2301F181110E949E01EC2FF0E0EE0F7F
:1005E000FF1FE859FF4FA591B491EC91ED2391F0D5
:1005F00085E598E5A4E1B0E08093030190930401C0
:10060000A0930501B093060181E080930201DF9180
:10061000CF91089580E29EE4A0E0B0E080930301D2
:1006200090930401A0930501B09306018EE2EDCFF3
:1006300085E592E00E94EA00892BD1F385E592E0FE
:100640000E94C8000895CF93C82F0E9418038032DB
:1006500071F484E190E00E9479016C2F85E592E0CD
:100660000E942C0180E190E0CF910C94790181E00F
:100670008093540285E190E0F7CF0E941803803206
:1006800041F484E190E00E94790180E190E00C94D3
:10069000790181E08093540285E190E0F8CF0F93D7
:1006A0001F93CF93DF93CDE4D1E08C01035B1E4F0A
:1006B000C017D10721F00E9418038993F9CFDF9169
:1006C000CF911F910F910895282F3FB7F8948091F3
:1006D0002D0190912E01A0912F01B09130013FBFCB
:1006E000820F911DA11DB11D8093240190932501BE
:1006F000A0932601B09327010895209141013091E4
:10070000420180915102909152022032310511F440
:10071000807F08952034310511F4807E08952038BB
:10072000310511F4807C08952115314009F4807859
:1007300008958EBD00000DB407FEFDCF8EB508955F
:10074000CF92DF92EF92FF920F931F93CF93DF939D
:10075000082F162FD42FC22F6091240170912501EC
:1007600080912601909127012FB7F894C0902D0118
:10077000D0902E01E0902F01F09030012FBF6C1926
:100780007D098E099F096F3F71058105910509F06B
:1007900010F40E945602802F0E949903812F0E941C
:1007A00099038D2F0E9499038C2FDF91CF911F9178
:1007B0000F91FF90EF90DF90CF900C9499032FEF63
:1007C000482F692F80EA0C94A0031F920F920FB656
:1007D0000F9211242F933F934F935F936F937F93C7
:1007E0008F939F93AF93BF93EF93FF9385E592E031
:1007F0000E940A01FF91EF91BF91AF919F918F915C
:100800007F916F915F914F913F912F910F900FBE0C
:100810000F901F9018951F920F920FB60F921124F0
:100820002F938F939F93EF93FF93E0916502F09145
:1008300066028081E0916B02F0916C0282FD1BC028
:10084000908180916E028F5F8F7320916F0282176B
:1008500041F0E0916E02F0E0EB5AFD4F958F8093EE
:100860006E02FF91EF919F918F912F910F900FBE8C
:100870000F901F9018958081F4CF1F920F920FB6A2
:100880000F9211242F933F938F939F93AF93BF9316
:1008900080912D0190912E01A0912F01B0913001F6
:1008A0003091280123E0230F2D3758F50196A11D23
:1008B000B11D2093280180932D0190932E01A093C8
:1008C0002F01B09330018091290190912A01A091CC
:1008D0002B01B0912C010196A11DB11D809329011E
:1008E00090932A01A0932B01B0932C01BF91AF915B
:1008F0009F918F913F912F910F900FBE0F901F905E
:10090000189526E8230F0296A11DB11DD2CF789429
:1009100084B5826084BD84B5816084BD85B5826004
:1009200085BD85B5816085BD80916E0081608093B5
:100930006E0010928100809181008260809381001E
:10094000809181008160809381008091800081602E
:10095000809380008091B10084608093B100809189
:10096000B00081608093B00080917A0084608093B1
:100970007A0080917A00826080937A0080917A0078
:10098000816080937A0080917A00806880937A00F9
:100990001092C100E0916502F091660282E08083CE
:1009A000E0916102F09162021082E0916302F091A5
:1009B000640280E1808310926D02E0916902F091FF
:1009C0006A0286E08083E0916702F091680280818C
:1009D00080618083E0916702F09168028081886085
:1009E0008083E0916702F091680280818068808353
:1009F000E0916702F091680280818F7D808362E0E0
:100A000082E00E94F50161E085E00E94F50185E049
:100A10000E94890261E086E00E94F50186E00E9462
:100A2000890261E087E00E94F50187E00E94890267
:100A300061E088E00E94F50188E00E94890261E09F
:100A400089E00E94F5011092B0001092B10010925E
:100A5000B20061E083E00E94F5018091B000806205
:100A60008093B0008091B00081608093B00080914D
:100A7000B10088608093B1008091B1008160809363
:100A8000B10088E28093B30084E18093B4000E94B7
:100A9000DD026BE8662E7724739470E0472E70E0D9
:100AA000572EEAE0CE2ED12C8091540261E08111C4
:100AB00001C060E088E00E94C7012FB7F8948091E0
:100AC0002D0190912E01A0912F01B09130012FBFE7
:100AD00040913101509132016091330170913401A4
:100AE0008C019D01041B150B260B370BB901A801C6
:100AF000483251056105710518F1809331019093D9
:100B00003201A0933301B0933401C091010180916F
:100B10000001C13A20F081958093000102C0C031EC
:100B2000D0F380910001C80FC093010161E089E01A
:100B30000E94F501C11126C060E089E00E94C70152
:100B400085E592E00E94EA00892B09F447C10E94E2
:100B50001803803509F417C208F06EC0803409F418
:100B60002AC108F056C0803309F40AC1813309F460
:100B70000CC1803209F055C081E08093540285E1B8
:100B800090E016C1CF3F11F461E0D7CFE5E8F0E087
:100B90008491833019F138F48130B1F08230C9F09A
:100BA000C7FDF2CFC9CF873021F1883051F18430B1
:100BB000B9F780918000806280938000D0E0D0936C
:100BC0008B00C0938A00BCCF84B5806884BDC7BD4C
:100BD000B7CF84B5806284BDC8BDB2CF809180009C
:100BE000806880938000D0E0D0938900C093880013
:100BF000A7CF8091B00080688093B000C093B3000D
:100C00009FCF8091B00080628093B000C093B40009
:100C100097CF823409F422C108F4D2C0853409F494
:100C2000A7C181E0809354020E941803803209F02A
:100C3000A6CF82E190E0BCC0813609F48FC208F0F3
:100C40003FC0853509F446C2863509F452C2813564
:100C500041F7109254029FB7F89480914B0188237A
:100C600019F0815080934B0180914B01811105C097
:100C70008CB58F7B8CBD10924A019FBF60E08BE0EA
:100C80000E94F50160E08DE00E94F50160914C0149
:100C900081E068278AE00E94C70160E08AE00E9444
:100CA000F50160E085E00E94C701109253021092A6
:100CB000500210924D0210924E0210924F0262C0EA
:100CC000843709F4D3C2853709F443C3843609F065
:100CD000A8CF61E087E00E94C7010E941803C82FD7
:100CE0000E941803D0E0DC2FCC27C80FD11D0E9432
:100CF0001803863409F06DC2CE010E944F030E9492
:100D00001803803209F05DC284E190E00E9479010D
:100D10000E947D037C014DE4A42E41E0B42EC50168
:100D20008D5491408C179D0708F03FC20E947D03AF
:100D30008E159F0549F020E04E2D6F2D8CE40E940A
:100D4000A0030E947D037C01009151021091520288
:100D5000F5012081402F612F80E40E94A003F5015E
:100D60002181402F612F88E40E94A0030F5F1F4F55
:100D70001093520200935102F2E0AF0EB11CCFCF9C
:100D8000109254020E943D0329C00E941803803231
:100D900009F0F2CE84E190E00E94790147E050E052
:100DA0006BE171E085E592E00E948C0080E190E0CB
:100DB0000E94790113C00E9418030E941803E2CF19
:100DC0000E941803843829F1A8F48138F1F08238A0
:100DD000F1F08038E9F582E00E94230341145104C8
:100DE00009F462CE0E94F600882309F45DCE0E94C9
:100DF00000005ACE833971F1883971F1893841F593
:100E00000E94DD0280910201E7CF81E0E5CF89E118
:100E1000E3CF80E480937C0080917A0080648093AB
:100E20007A0080917A0086FDFCCF20917800309185
:100E30007900B9017695679590E080E061527C4732
:100E40008F4F9F4F50E040E00E94080A822FC4CF8E
:100E500080E0C2CF83E5C0CF83E0BECF84E190E0E5
:100E60000E944F0320914D012093350180914E0146
:100E70008093360180914F0180933701809150011A
:100E80008093380180915101809339018091520102
:100E900080933A018091530180933B0180915401EA
:100EA00080933C018091550190E0982F88273091E4
:100EB0005601830F911D90933E0180933D018091D7
:100EC000570190E0982F882730915801830F911D8A
:100ED0009093400180933F018091590190E0982FB9
:100EE000882730915A01830F911D9093420180937E
:100EF000410180915B0190E0982F882730915C013F
:100F0000830F911D909344018093430180915D0173
:100F100090E0B0E0A0E0BA2FA92F982F8827309159
:100F20005E01830F911DA11DB11DBA2FA92F982F0E
:100F3000882730915F01830F911DA11DB11DBA2F2C
:100F4000A92F982F882730916001830F911DA11D33
:100F5000B11D8093450190934601A0934701B09342
:100F6000480181E0203E08F480E080934C010ACFE4
:100F70000E941803815090E00E944F0380914D0120
:100F800080934901FFCE809153028111FBCED09214
:100F90000801C09207011092500210924D02109267
:100FA0004E0210924F0260914C018AE00E94C701EC
:100FB00061E08AE00E94F501CFB7F89480914B017F
:100FC000811127C0E8EBF0E08491E4EAF0E094912D
:100FD000E82FF0E0EE0FFF1FE057FF4FA591B4910F
:100FE0008C91982321F461E08AE00E94C70161E0BE
:100FF0008AE00E94F5018CB580618CBD8CB580645F
:101000008CBD61E08DE00E94F50161E08BE00E9403
:10101000F50180914B018F5F80934B01CFBF009111
:10102000030110910401209105013091060140E077
:1010300052E16AE770E080E00417150726073707DA
:1010400040F476956795579547958F5F8630A1F761
:1010500087E0982F906A96958095817020914A013B
:10106000222351F02FB7F89430914A01313021F406
:101070003DB33DB33DBB2FBF9CBD8DBD60E08DE05A
:101080000E94C70164E170E080E090E00E94560297
:10109000D0914C01C1E06D2F6C278AE00E94C701FE
:1010A000C3010197F1F76D2F8AE00E94C70162E347
:1010B00070E080E090E00E94560220E040E063E5AE
:1010C0008CEA0E94A00361E085E00E94C701C09302
:1010D000530258CE0E941803C82F0E94180390E0B4
:1010E000982F88278C0F911D909352028093510264
:1010F00049CE84E090E00E944F03C0914F011091CF
:101100004D01209150014C2F60914E01812F0E9482
:10111000A003D82F0E942303103339F4C33028F4DE
:10112000EC2FF0E0E35BFD4FD08380914D028823EC
:1011300009F454CE90914E02992309F44FCE909128
:101140004F02992309F44ACED0920801C0920701B8
:101150008E3109F043CE0E94A60240CE61E087E0C6
:101160000E94C7010E941803182FC0915102D0910C
:10117000520280915002882311F0CC0FDD1FCE0166
:101180000E94DF03181751F0212F4C2F6D2F80EC98
:101190000E94A003809107010E9464030E943D0306
:1011A00060E087E00E94C70119CE20E04E2D6F2D30
:1011B0008CE40E94A00360E185E592E00E942C018E
:1011C000EFCF81E08093540285E190E00E947901A5
:1011D000E7CF853409F047C00091510210915202C7
:1011E00080915002882311F0000F111FCE010E9440
:1011F0004F032DE4A22E21E0B22EF12CE12C312C54
:1012000098012D5431404901C4018A0D9B1DCE1512
:10121000DF0599F0F50121905F010E94DF03281698
:1012200041F0222D4E2D6F2D81EC0E94A00333241E
:101230003394FFEFEF1AFF0AE7CF332051F020E09D
:10124000402F612F82EC0E94A003809107010E9431
:1012500064030E941803803209F0B3CF84E190E068
:101260000E947901A8CF81E190E0B0CF61E086E0F3
:101270000E94C7010E941803082F0E941803D82F4C
:101280000E941803C82F0E941803803251F081E099
:101290008093540285E190E00E94790160E086E04D
:1012A00081CF10E0102F00270D0F111D84E190E079
:1012B0000E947901C63449F5F12CE12CE016F106C3
:1012C00008F041C0C0915102D09152022FEF4C2F33
:1012D0006D2F80E20E94A003682F85E592E00E94B6
:1012E0002C012FEF4C2F6D2F88E20E94A003682F56
:1012F00085E592E00E942C012196D0935202C09382
:10130000510222E0E20EF11CD9CF61E1C534E1F4D3
:10131000E0905102F090520280915002882311F027
:10132000EE0CFF1CD0E0C0E00C171D0761F0CE01F1
:101330008E0D9F1D0E94DF03682F85E592E00E94BD
:101340002C012196F1CF60E185E592E00E942C010D
:10135000A5CF61E086E00E94C7010E941803803299
:1013600009F095CF81E08093500284E190E00E94E3
:101370007901CDE4D2E010E020E0412F60E080E38D
:101380000E94A0038993682F85E592E00E942C01BA
:101390001F5F133089F780E190E00E947901D092BD
:1013A0000801C092070180914D028E3109F076CF7D
:1013B0000E94A60273CFE5E5F2E01382128288EE66
:1013C00093E0A0E0B0E084839583A683B7838DE0AB
:1013D00091E09183808385EC90E09587848784EC0D
:1013E00090E09787868780EC90E0918B808B81ECF2
:1013F00090E0938B828B82EC90E0958B848B86ECD3
:1014000090E0978B868B118E128E138E148E08951A
:10141000052E97FB1EF400940E941F0A57FD07D06B
:101420000E94270A07FC03D04EF40C941F0A509523
:101430004095309521953F4F4F4F5F4F08959095C0
:101440008095709561957F4F8F4F9F4F0895A1E2D2
:101450001A2EAA1BBB1BFD010DC0AA1FBB1FEE1F2E
:10146000FF1FA217B307E407F50720F0A21BB30B79
:10147000E40BF50B661F771F881F991F1A9469F7F5
:1014800060957095809590959B01AC01BD01CF0151
:101490000895EE0FFF1F0590F491E02D0994F89444
:0214A000FFCF7C
:1014A20008802E204E00000A00000000002C018C53
:1014B20000B9007E01EA00C800DC006E616E6F5365
:0414C200544B000087
:00000001FF
